:0300000002023FBA
:0C023F00787FE4F6D8FD75810B020253B5
:10022F0009065B4F666D7D077F6F777C395E79714D
:04020D007F0A7E00E6
:10021100D3EF9400EE940040147D787C00ED1D70C6
:0D022100011CED4C70F7EF1F70E61E80E32E
:01022E0022AD
:10000300C2B5E4F5A875B801758922758DFF758BA6
:04001300E8D2AF225E
:08024B00EF90022F93F58022D1
:10017700D2ABD28E7F037E00120211C2ABC28EC2F7
:10018700B5750A0085090BD3E50B9400E50A9400C1
:1001970040227F017E00120211D2ABD28E7F017EF8
:1001A70000120211C2ABC28EC2B5E50B150B70D798
:0B01B700150A80D37F0A7E00020211AF
:0501C200AF0912024B21
:1001C700E509B41000503E9001D5F82828730202C3
:1001D70007020207020207020207020207020207DA
:1001E70002020702020702020702020702020702CF
:1001F7000207020207020207020207020207800043
:0602070005091201772237
:10001E0075A0FE85A0085308F0E50864F06047124D
:10002E00020D85A0085308F0E50864F0603885A03D
:10003E0008E5082482601B24C0601224E0600924B5
:10004E00F07012E4F509800D75090180087509023A
:10005E008003750903E50864F0600885A00853085D
:10006E00F080F21201C275A0FD85A0085308F0E5DC
:10007E000864F0604712020D85A0085308F0E508E9
:10008E0064F0603885A008E5082483601B24C060F6
:10009E001224E0600924F07012750904800D7509B0
:1000AE000580087509068003750907E50864F06088
:1000BE000885A0085308F080F21201C275A0FB85D6
:1000CE00A0085308F0E50864F0604712020D85A001
:1000DE00085308F0E50864F0603885A008E50824A8
:1000EE0085601B24C0601224E0600924F070127534
:1000FE000908800D750909800875090A80037509BC
:10010E000BE50864F0600885A0085308F080F21231
:10011E0001C275A0F785A0085308F0E50864F060E9
:10012E004712020D85A0085308F0E50864F0603808
:10013E0085A008E5082489601B24C0601224E060B5
:10014E000924F0701275090C800D75090D80087563
:10015E00090E800375090FE50864F0600885A00894
:09016E005308F080F21201C222D4
:0802530012000312001E80FBE3
:03001B00020017C9
:03001700B2B5324D
:00000001FF
