:03000000020420D7
:0C042000787FE4F6D8FD75813B0204678C
:080003002018050300000000B5
:100860007E01EE60135F6004D2B48002C2B4D2B5E0
:0A087000C2B5EE25E0FE80EAD2B426
:01087A00225B
:10089500E4FF7E01EE600F30B4024207D2B5C2B567
:0608A500EE25E0FE80EEEE
:0108AB00222A
:1008FC00D297EF25E04480FF120860AF0512086024
:03090C00C297226D
:10095700D297EF25E04481FF120860120895C297ED
:01096700226D
:0607E8008B2D8A2E892FE3
:1007EE00D2977FBE120860E4FDAB2DAA2EA92F8DE5
:1007FE0082758300120027FF1208600DBD04EAC245
:01080E009752
:01080F0022C6
:060810008B2D8A2E892FBA
:10081600D2977FBF120860E4FD120895AB2DAA2E71
:10082600A92F8D82758300EF1200540DBD04EAC214
:01083600972A
:01083700229E
:06074A008B228A238924A2
:100750007B007A007925120810E4252BFFE4342071
:10076000AB22AA23A9248FF01200A1AB22AA23A9AD
:1007700024900002E529120054900003E52812009D
:0907800054900007E52A02005420
:1007BF00E4F52C120076F52B900007120027F52A8E
:1007CF00900002120027F529900003120027F52848
:0907DF007B007A0079250207E88D
:1008AC00C297C2B5E4FD7F071208FC7BFF7A007982
:0408BC00030207BF6D
:10098A00313233263435362537383928301B0D278E
:100702009010010101010101010101010101010139
:100712000101900001010101010101010101010139
:10072200010101010108001009FFFFFFFFFFFFFFA8
:09073200FFFFFFFFFFFFFFFFFFC7
:1005A700E4F522E4F523E52225E025E024102523C0
:1005B700F8E2FFE52225E025E024002523F8E2FE06
:1005C7006F603DEE6020E52225E025E0248AF58274
:1005D700E43409F583E5822523F582E43583F58341
:1005E700E493FF1206B7E52225E025E02410252332
:1005F700F8E2FFE52225E025E024002523F8EFF2C5
:100607000523E523C39404409D0522E522C39404F2
:02061700409110
:0106190022BE
:1001F000E50825E025E02409F8E625E0FFA2A4E4CF
:10020000334FFFE50825E025E02409F8A607E508B7
:1002100025E025E0240AF8E625E0FFA2A5E4334F17
:10022000FFE50825E025E0240AF8A607E50825E013
:1002300025E0240BF8E625E0FFA2A6E4334FFFE516
:100240000825E025E0240BF8A607E50825E025E0D1
:10025000240CF8E625E0FFA2A7E4334FFFE50825CC
:10026000E025E0240CF8A607E4FFE50825E025E0FA
:1002700024092FF8E6540FFE700EE50825E025E06E
:1002800024102FF8E4F28010BE0F0DE50825E025BC
:10029000E024102FF87401F20FBF04CE05085308B4
:1002A00003E50814600F1460111460132403701325
:1002B000D2A0C2A322D2A3C2A222D2A2C2A122D27F
:0302C000A1C2A038
:0102C3002218
:10090F007580FFC290D291D295AF80C295EF20E74C
:01091F00F6E1
:0109200022B4
:10099A00AE0712090FC290C2918E80D295C29522DB
:1009AA00AE0712090FD290C2918E80D295C29522BB
:10092100ED7004AC078004EF2440FCEC4480FF022E
:02093100099A21
:100838008B298A2A892B120921AB29AA2AA92B12CA
:10084800000E6013052BE52B7002052A14F912001F
:080858000EFF1209AA80E22242
:10096800120921AF031BEF60077F201209AA80F349
:01097800225C
:1008C0007F3812099A7F0C12099A7F0612099A7FC3
:0408D0000102099A7E
:0E09D8003230202D202D2000203A203A200021
:0E073B00C180013300013100013200013000A5
:100669007521AAD2AF7F017E0012052E1208AC12A5
:1006790008C07BFF7A0979D8E4FD7F031208387B2B
:10068900FF7A0979E07D017F041208381205A73045
:1006990000FAE53370F6C200FB7A00793412074A92
:0E06A900E521653A60E6120789853A2180DE78
:10087B00EBC4540F2430F525EB540F2430F526E44C
:0A088B00F527FB7A007925020838F2
:10078900AB35E4FD7F0512087BAB36E4FD7F08122B
:10079900087BAB37E4FD7F0B12087BAB387D017F0B
:1007A9000412087BAB397D017F0712087BAB3A7DC8
:0607B900017F0A02087B2B
:1004AC00E53314B40C0050799004C275F003A4C564
:1004BC008325F0C583730204E60204EA0204F00209
:1004CC0004F60204FC02050202050802050E0205F0
:1004DC001402051A020520020526E4FD8026E4FD1F
:1004EC007F06803AE4FD7F088034E4FD7F09802E8E
:1004FC00E4FD7F0B8028E4FD7F0C80227D017F04CE
:10050C00801C7D017F0580167D017F0780107D0199
:10051C007F08800A7D017F0A80047D017F0B120910
:02052C0021228A
:10093300EF54F0C39490500674102FFF80035307B5
:020943000F2281
:0F09BA00EF540FC3940950030F80035307F0222B
:10094500EF54F0D39400400674F02FFF8003430763
:020955009022EE
:0F09C900EF540FD3940040031F8003430709220C
:1002C400E53314B40C00400302036C9002DD75F0B6
:1002D40003A4C58325F0C583730203010203080246
:1002E400031402031D02032602032F020338020330
:1002F4004102034A02035302035C020365AF351251
:1003040009338005AF351209BA7534008F3580582A
:10031400AF361209338F36804FAF361209BA8F3693
:100324008046AF371209338F37803DAF371209BA91
:100334008F378034AF381209338F38802BAF38129F
:1003440009BA8F388022AF391209338F398019AF37
:10035400391209BA8F398010AF3A1209338F3A80B3
:0E03640007AF3A1209BA8F3A1207890204ACA9
:10037200E53314B40C00400302041A90038B75F0A9
:1003820003A4C58325F0C583730203AF0203B6023B
:1003920003C20203CB0203D40203DD0203E602031B
:1003A200EF0203F802040102040A020413AF351239
:1003B20009458005AF351209C97534008F3580585B
:1003C200AF361209458F36804FAF361209C98F36C4
:1003D2008046AF371209458F37803DAF371209C9C2
:1003E2008F378034AF381209458F38802BAF3812DF
:1003F20009C98F388022AF391209458F398019AF68
:10040200391209C98F398010AF3A1209458F3A80E3
:0E04120007AF3A1209C98F3A1207890204ACEB
:1008D400E533600FC3940C50040533800375330172
:0408E4001204AC222C
:1008E800E533600FD3940140041533800375330C4E
:0408F8001204AC2218
:0909E6007533021208E80200005A
:10097900E4F533300108FB7A0079341207BF02002D
:01098900006D
:1006B7008F24E524C394304007E524D39439403A86
:1006C700E524B426030202C4E524B4280302037216
:1006D700E524B425030208E8E524B427030208D477
:1006E700E524B40D0BE53370030209E6D201800758
:0B06F700E524B41B05C20112097922A2
:10052E0075250075241075230E752200E4FCFDABB5
:10053E0025AA24A923A8221200C0E47BE87A03F995
:10054E00F812014B8F258E248D238C22C3E4952522
:10055E00F525E49524F52474019523F523E49522DD
:10056E00F522E525241CF525E43524F524E4352370
:10057E00F523E43522F522AF25AE24AD23FC780811
:10058E001201DD8F318525325389F0438901853182
:08059E008C85328AD2A9D28CAF
:0105A6002232
:03000B0002061AD0
:10061A00C0E0C0F0C083C082C0D075D000C000C0A6
:0D062A0001C002C003C004C005C006C00727
:1006370085318C85328A1201F00530E530C394C8C4
:070647004005753000D200F0
:10064E00D007D006D005D004D003D002D001D00000
:0B065E00D0D0D082D083D0F0D0E032AA
:10042C00020669E493A3F8E493A34003F68001F277
:10043C0008DFF48029E493A3F85407240CC8C333D1
:10044C00C4540F4420C8834004F456800146F6DFA0
:10045C00E4800B0102040810204080900702E47E27
:10046C00019360BCA3FF543F30E509541FFEE49395
:10047C00A360010ECF54C025E060A840B8E493A35C
:10048C00FAE493A3F8E493A3C8C582C8CAC583CA87
:10049C00F0A3C8C582C8CAC583CADFE9DEE780BE3F
:0107490000AF
:10000E00BB010689828A83E0225002E722BBFE02F0
:09001E00E32289828A83E4932223
:10002700BB010CE58229F582E5833AF583E022508E
:1000370006E92582F8E622BBFE06E92582F8E222D8
:0D004700E58229F582E5833AF583E49322F2
:10005400F8BB010DE58229F582E5833AF583E8F0E2
:10006400225006E92582C8F622BBFE05E92582C88E
:02007400F22276
:10007600BB010A89828A83E0F5F0A3E02250068755
:10008600F009E71922BBFE07E3F5F009E319228917
:0B009600828A83E493F5F0740193224A
:1000A100BB010A89828A83F0E5F0A3F0225006F7AA
:0F00B10009A7F01922BBFE06F3E5F009F31922A7
:1000C000E88FF0A4CC8BF0A42CFCE98EF0A42CFCDF
:1000D0008AF0EDA42CFCEA8EF0A4CDA8F08BF0A45D
:1000E0002DCC3825F0FDE98FF0A42CCD35F0FCEBBC
:1000F0008EF0A4FEA9F0EB8FF0A4CFC5F02ECD3981
:0F010000FEE43CFCEAA42DCE35F0FDE43CFC22ED
:10010F0075F008758200EF2FFFEE33FECD33CDCCA7
:10011F0033CCC58233C5829BED9AEC99E58298402A
:10012F000CF582EE9BFEED9AFDEC99FC0FD5F0D607
:10013F00E4CEFBE4CDFAE4CCF9A88222B800C1B931
:10014F000059BA002DEC8BF084CFCECDFCE5F0CB6F
:10015F00F97818EF2FFFEE33FEED33FDEC33FCEBA8
:10016F0033FB10D703994004EB99FB0FD8E5E4F963
:10017F00FA227818EF2FFFEE33FEED33FDEC33FC50
:10018F00C933C910D7059BE99A4007EC9BFCE99A44
:10019F00F90FD8E0E4C9FAE4CCFB2275F010EF2F89
:1001AF00FFEE33FEED33FDCC33CCC833C810D70789
:1001BF009BEC9AE899400AED9BFDEC9AFCE899F8C4
:0E01CF000FD5F0DAE4CDFBE4CCFAE4C8F92257
:1001DD00E8600FECC313FCED13FDEE13FEEF13FF00
:0301ED00D8F12224
:00000001FF
