:030000000201D129
:0C01D100787FE4F6D8FD75814702021823
:1002D600C1800141000142000145000243000002C5
:1002E6004600001E23E7DBBD7EBDDBE77FBFDFEFF9
:1002F600F7FBFDFEFDFBF7EFDFBF7FEF0000000021
:09030600000000012100012200A9
:10031000E4F508F509D2AFC294D293D292D291C239
:0E032000907F0AFE12025D3000FDC20080F9DF
:10025D00750D00750C10750B0E750A00E4FCFDABE9
:10026D000DAA0CA90BA80A12000EE47BE87A03F97B
:10027D00F81200998F0D8E0C8D0B8C0AC3E4950D21
:10028D00F50DE4950CF50C7401950BF50BE4950A41
:10029D00F50AE50D240CF50DE4350CF50CE4350BE4
:1002AD00F50BE4350AF50AAF0DAE0CAD0BFC780875
:1002BD0012012B8F41850D425389F04389018541F0
:0802CD008C85428AD2A9D28C73
:0102D5002206
:03000B0002013EB1
:0D013E00C0E0C083C082C0D075D000C000FA
:10014B0085418C85428A0521E521C39464406CC2AC
:10015B0094D293D292D291C290E522B4080050442B
:10016B00900172F828287302018A02018C02019314
:10017B0002019502019902019B02018A0201A980E9
:10018B001605227580DB801C8006052280138000FB
:10019B0005227580BD800D05227580E780067522CE
:1001AB000075807E0547E54770020546752100D234
:0B01BB0000640645467004F546F54759
:0B01C600D000D0D0D082D083D0E03237
:1001DD00020310E493A3F8E493A34003F68001F225
:1001ED0008DFF48029E493A3F85407240CC8C33323
:1001FD00C4540F4420C8834004F456800146F6DFF2
:10020D00E4800B01020408102040809002D6E47EA9
:10021D00019360BCA3FF543F30E509541FFEE493E6
:10022D00A360010ECF54C025E060A840B8E493A3AD
:10023D00FAE493A3F8E493A3C8C582C8CAC583CAD8
:10024D00F0A3C8C582C8CAC583CADFE9DEE780BE90
:01030F0000ED
:10000E00E88FF0A4CC8BF0A42CFCE98EF0A42CFC91
:10001E008AF0EDA42CFCEA8EF0A4CDA8F08BF0A40F
:10002E002DCC3825F0FDE98FF0A42CCD35F0FCEB6E
:10003E008EF0A4FEA9F0EB8FF0A4CFC5F02ECD3933
:0F004E00FEE43CFCEAA42DCE35F0FDE43CFC22A0
:10005D0075F008758200EF2FFFEE33FECD33CDCC5A
:10006D0033CCC58233C5829BED9AEC99E5829840DD
:10007D000CF582EE9BFEED9AFDEC99FC0FD5F0D6BA
:10008D00E4CEFBE4CDFAE4CCF9A88222B800C1B9E4
:10009D000059BA002DEC8BF084CFCECDFCE5F0CB22
:1000AD00F97818EF2FFFEE33FEED33FDEC33FCEB5B
:1000BD0033FB10D703994004EB99FB0FD8E5E4F916
:1000CD00FA227818EF2FFFEE33FEED33FDEC33FC03
:1000DD00C933C910D7059BE99A4007EC9BFCE99AF7
:1000ED00F90FD8E0E4C9FAE4CCFB2275F010EF2F3C
:1000FD00FFEE33FEED33FDCC33CCC833C810D7073C
:10010D009BEC9AE899400AED9BFDEC9AFCE899F876
:0E011D000FD5F0DAE4CDFBE4CCFAE4C8F92209
:10012B00E8600FECC313FCED13FDEE13FEEF13FFB2
:03013B00D8F122D6
:00000001FF
