:030000000202C336
:0C02C300787FE4F6D8FD75815A02030A2A
:10053F00313233263435362537383928301B0D27DD
:08054F000E0C0D090B03070659
:10043400104B01010101010101010101010101014F
:100444000101044700000000C10004210000000075
:100454001025010101010101010101010101010155
:1004640001010135001036FFFFFFFFFFFFFFFFFF13
:0C047400FFFFFFFFFFFFFF014600C1017A
:10055700D2AF758901758CFC758A67D2A9D28C12C6
:04056700034F80FBC3
:10050E008F0E8E0D8D0C8C0BC2AFE47FEC7E0FFD2B
:10051E00FCAB0EAA0DA90CA80B12000EE47B687A98
:10052E0001F9F81204CA8F4A8E498D488C47D2AF12
:01053E00229A
:0E056B00C2AFE4F54AF549F548F547D2AF2294
:020214008F0A4F
:10021600E50AC39430403DE50AD394395036E47F6D
:100226000AFEFDFCAB24AA23A922A82112000EA8CF
:1002360004A905AA06AB07E50A24D0FFE434FFFEAD
:10024600E4FCFDEB2FF524EA3EF523ED39F522EC2F
:1002560038F52122E50A640D702B20000AAF24AE82
:1002660023AD22AC21801174FFFFFEFDFCAB24AA56
:1002760023A922A82112000E12050EE4F524F52367
:10028600F522F52122E50AB42603C20022E50AB4C6
:100296002803D20022E50AB4250A7F687E017D0084
:1002A6007C00800DE50AB4270B7F987EFE7DFF7CDF
:0C02B600FF02050EE50AB41B0312056BE5
:0102C2002219
:10034F00E4F508E4F509E50825E025E0244B250947
:10035F00F8E6FFE50825E025E024252509F8E6FE67
:10036F006F603DEE6020E50825E025E0243FF58233
:10037F00E43405F583E5822509F582E43583F583B9
:10038F00E493FF120214E50825E025E0244B25092C
:10039F00F8E6FFE50825E025E024252509F8A6075E
:1003AF000509E509C39404409D0508E508C39404B5
:0203BF0040916B
:0103C1002219
:10014100E53525E025E02436F8E625E0FFA2A4E424
:10015100334FFFE53525E025E02436F8A607E535E0
:1001610025E025E02437F8E625E0FFA2A5E4334F9A
:10017100FFE53525E025E02437F8A607E53525E03C
:1001810025E02438F8E625E0FFA2A6E4334FFFE599
:100191003525E025E02438F8A607E53525E025E0FA
:1001A1002439F8E625E0FFA2A7E4334FFFE5352522
:1001B100E025E02439F8A607E4FFE53525E025E050
:1001C10024362FF8E6540FFE700EE53525E025E0C4
:1001D100244B2FF8E4F6800FBE0F0CE53525E02502
:1001E100E0244B2FF876010FBF04CF0535533503BB
:1001F100E53514600F14601114601324037013D2D9
:10020100A0C2A322D2A3C2A222D2A2C2A122D2A15F
:02021100C2A089
:0102130022C8
:1003C200AF4AAE49AD48AC47EC4D4E4F6060E4FFDA
:1003D200FEFDFCAB4AAA49A948A847D312005D40DA
:1003E2001F054653460774FF254AF54AE54934FF7F
:1003F200F549E54834FFF548E54734FFF547801EE7
:100402001546534607E4FAF9F8E54A2401F54AEAA3
:100412003549F549E93548F548E83547F547AF909C
:100422005307F0E54690054F9342078F9022439081
:010432000FBA
:0104330022A6
:03000B000204816B
:10048100C0E0C0F0C083C082C0D075D000C000C041
:0D04910001C002C003C004C005C006C007C2
:10049E00758CFC758A67120141B20130010312039B
:0104AE00C28B
:1004AF00D007D006D005D004D003D002D001D000A1
:0B04BF00D0D0D082D083D0F0D0E0324B
:1002CF00020557E493A3F8E493A34003F68001F2E9
:1002DF0008DFF48029E493A3F85407240CC8C33330
:1002EF00C4540F4420C8834004F456800146F6DFFF
:1002FF00E4800B0102040810204080900434E47E57
:10030F00019360BCA3FF543F30E509541FFEE493F3
:10031F00A360010ECF54C025E060A840B8E493A3BA
:10032F00FAE493A3F8E493A3C8C582C8CAC583CAE5
:10033F00F0A3C8C582C8CAC583CADFE9DEE780BE9D
:01048000007B
:10000E00E88FF0A4CC8BF0A42CFCE98EF0A42CFC91
:10001E008AF0EDA42CFCEA8EF0A4CDA8F08BF0A40F
:10002E002DCC3825F0FDE98FF0A42CCD35F0FCEB6E
:10003E008EF0A4FEA9F0EB8FF0A4CFC5F02ECD3933
:0F004E00FEE43CFCEAA42DCE35F0FDE43CFC22A0
:1004CA00C2D5E830E70FB2D5E4C39BFBE49AFAE45D
:1004DA0099F9E498F8EC30E717B2D5120500120042
:1004EA00AFE4C39BFBE49AFAE499F9E498F8800331
:1004FA001200AF30D50DE4C39FFFE49EFEE49DFDDC
:04050A00E49CFC224F
:10005D00EB9FF5F0EA9E42F0E99D42F0EC6480C81A
:06006D0064809845F022BA
:1000730075F008758200EF2FFFEE33FECD33CDCC44
:1000830033CCC58233C5829BED9AEC99E5829840C7
:100093000CF582EE9BFEED9AFDEC99FC0FD5F0D6A4
:1000A300E4CEFBE4CDFAE4CCF9A88222B800C1B9CE
:1000B3000059BA002DEC8BF084CFCECDFCE5F0CB0C
:1000C300F97818EF2FFFEE33FEED33FDEC33FCEB45
:1000D30033FB10D703994004EB99FB0FD8E5E4F900
:1000E300FA227818EF2FFFEE33FEED33FDEC33FCED
:1000F300C933C910D7059BE99A4007EC9BFCE99AE1
:10010300F90FD8E0E4C9FAE4CCFB2275F010EF2F25
:10011300FFEE33FEED33FDCC33CCC833C810D70725
:100123009BEC9AE899400AED9BFDEC9AFCE899F860
:0E0133000FD5F0DAE4CDFBE4CCFAE4C8F922F3
:00000001FF
