:0300000002036B8D
:0C036B00787FE4F6D8FD7581200203B213
:0D06A100C100C101011B00011900011A0078
:1005F60075985053890F438920AB07AA06E4F9F88A
:100606007F807E70FDFC1204BCEFF404F58D858DB1
:080616008BC2ABD2ACD28E22E4
:100646008B128A138914AF051DEF601AC201AB1213
:100656000514E514AA137002051314F912011CF50A
:07066600992001E280FB2254
:060537008B088A09890A05
:10053D00EDD3951B4002AD1BE4FFEFC39D501B7423
:10054D00002FF8E2FEAB08050AE50AAA09700205BC
:0F055D000914F9EE1201350F80E0E4F51BAF052C
:01056C00226C
:10059F00E51BD394004021E519651B6007851B19E6
:1005AF00E4F51A22E51AC3941E5010EF251AF51A16
:0B05BF00C3941E4006D20022E4F51990
:0105CA00220E
:10066D00300018C2007BFE7A0079407D28120537D4
:0B067D00AD077BFE7A00794012029965
:01068800224F
:0300230002056D66
:10056D00C0E0C0D075D000C000C007309814C2984C
:10057D00E51BC39440500BAF1B051B74002FF8E512
:10058D0099F2309904C299D201D007D000D0D0D0C1
:02059D00E0324A
:1005CB0062616420636F6D6D616E642E0D0A006253
:1005DB00757A7A206F6E0062757A7A206F66660084
:0B05EB00200007080105DA05E205EB1F
:0806AE00C102011C00011D0046
:10068900D2AF7F017E001203F77F807E251205F627
:0806990012000E12066D80FB39
:100500008B128A138914AF181518EF6028AB1505E4
:1005100017E517AA167002051614F912011CFFAB95
:10052000120514E514AA137002051314F912011C24
:070530006F60D3C322D32248
:080299008B088A09890A8D0B0C
:1002A100780C7C007D007BFF7A0579F07E007F066B
:1002B1001200F6E4FEEE9005ED93FFE50BC39F40BF
:1002C10020EE25E0240CF8E6FC08E6AA047515FFEB
:1002D1008A16F5178F18AB08AA09A90A120500405A
:1002E100040EBE03D0EE14600B14600C240270489F
:1002F100D202804EC202804AAB08AA09A90A850B24
:1003010082758300E41201479005EFE4937E002992
:10031100F9EE3AFAE4FDFF12061E9005EFE493FFB1
:10032100C3E50B9FFEC394105018AF06C374109E13
:10033100FBE4FD1206DB800A7BFF7A0579CB7D0E9B
:100341008024AB08AA09A90AAF0B050B8F8275831C
:1003510000740D120147AF0B050B8F82758300747A
:090361000A120147AD0B12064619
:01036A002270
:1003F700750B00750A1075090E750800E4FCFDAB56
:100407000BAA0AA909A808120169E47BE87A03F98B
:10041700F81201F48F0B8E0A8D098C08C3E4950B33
:10042700F50BE4950AF50A74019509F509E49508B1
:10043700F508E50B2421F50BE4350AF50AE435093F
:10044700F509E43508F508AF0BAE0AAD09FC7808E5
:100457001202868F1C850B1D5389F0438901851C69
:080467008C851D8AD2A9D28CFC
:01046F00226A
:03000B000204707C
:10047000C0E0C0F0C083C082C0D075D000C000C052
:1004800001C002C003C004C005C006C007851C8CA3
:10049000851D8A300204B2968002D2967F01120531
:1004A0009FD007D006D005D004D003D002D001D011
:0C04B00000D0D0D082D083D0F0D0E03259
:1006B7007580FFC290D291D295AF80C295EF20E7A7
:0106C700F63C
:0106C800220F
:1006EC00AE071206B7C290C2918E80D295C29522E7
:1006FC00AE071206B7D290C2918E80D295C29522C7
:1006C900ED7004AC078004EF2440FCEC4480FF0289
:0206D90006EC2D
:10061E008B128A1389141206C9AB12AA13A91412CB
:10062E00011C60130514E5147002051314F9120170
:08063E001CFF1206FC80E22201
:1006DB001206C9AF031BEF60077F201206FC80F3E5
:0106EB0022EC
:10000E007F381206EC7F0C1206EC7F061206EC7F90
:04001E00010206ECE9
:10037700020689E493A3F8E493A34003F68001F20D
:1003870008DFF48029E493A3F85407240CC8C33387
:10039700C4540F4420C8834004F456800146F6DF56
:1003A700E4800B01020408102040809006A1E47E3F
:1003B700019360BCA3FF543F30E509541FFEE4934B
:1003C700A360010ECF54C025E060A840B8E493A312
:1003D700FAE493A3F8E493A3C8C582C8CAC583CA3D
:1003E700F0A3C8C582C8CAC583CADFE9DEE780BEF5
:0106B6000043
:10002600E709F608DFFA8046E709F208DFFA803EBC
:1000360088828C83E709F0A3DFFA8032E309F608A9
:10004600DFFA8078E309F208DFFA807088828C8311
:10005600E309F0A3DFFA806489828A83E0A3F608C5
:10006600DFFA805889828A83E0A3F208DFFA804C9F
:1000760080D280FA80C680D4806980F28033801076
:1000860080A680EA809A80A880DA80E280CA8033DF
:1000960089828A83ECFAE493A3C8C582C8CCC58357
:1000A600CCF0A3C8C582C8CCC583CCDFE9DEE78027
:1000B6000D89828A83E493A3F608DFF9ECFAA9F0A6
:1000C600EDFB2289828A83ECFAE0A3C8C582C8CCFC
:1000D600C583CCF0A3C8C582C8CCC583CCDFEADE15
:1000E600E880DB89828A83E493A3F208DFF980CC77
:1000F60088F0EF60010E4E60C388F0ED2402B40470
:100106000050B9F582EB2402B4040050AF23234516
:06011600822390007673C5
:10011C00BB010689828A83E0225002E722BBFE02E1
:09012C00E32289828A83E4932214
:10013500BB010689828A83F0225002F722BBFE01A9
:02014500F322A3
:10014700F8BB010DE58229F582E5833AF583E8F0EE
:10015700225006E92582C8F622BBFE05E92582C89A
:02016700F22282
:10016900E88FF0A4CC8BF0A42CFCE98EF0A42CFC35
:100179008AF0EDA42CFCEA8EF0A4CDA8F08BF0A4B3
:100189002DCC3825F0FDE98FF0A42CCD35F0FCEB12
:100199008EF0A4FEA9F0EB8FF0A4CFC5F02ECD39D7
:0F01A900FEE43CFCEAA42DCE35F0FDE43CFC2244
:1001B80075F008758200EF2FFFEE33FECD33CDCCFE
:1001C80033CCC58233C5829BED9AEC99E582984081
:1001D8000CF582EE9BFEED9AFDEC99FC0FD5F0D65E
:1001E800E4CEFBE4CDFAE4CCF9A88222B800C1B988
:1001F8000059BA002DEC8BF084CFCECDFCE5F0CBC6
:10020800F97818EF2FFFEE33FEED33FDEC33FCEBFE
:1002180033FB10D703994004EB99FB0FD8E5E4F9B9
:10022800FA227818EF2FFFEE33FEED33FDEC33FCA6
:10023800C933C910D7059BE99A4007EC9BFCE99A9A
:10024800F90FD8E0E4C9FAE4CCFB2275F010EF2FDF
:10025800FFEE33FEED33FDCC33CCC833C810D707DF
:100268009BEC9AE899400AED9BFDEC9AFCE899F81A
:0E0278000FD5F0DAE4CDFBE4CCFAE4C8F922AD
:1004BC00C2D5E830E70FB2D5E4C39BFBE49AFAE46B
:1004CC0099F9E498F8EC30E717B2D51204F212015E
:1004DC00F4E4C39BFBE49AFAE499F9E498F88003FA
:1004EC001201F430D50DE4C39FFFE49EFEE49DFDA4
:0404FC00E49CFC225E
:10028600E8600FECC313FCED13FDEE13FEEF13FF56
:03029600D8F1227A
:00000001FF
