:03000000020358A0
:0C035800787FE4F6D8FD75814002039F19
:1003E400456E7465722050617373776F7264005345
:1003F40065742050617373776F7264005061737316
:10040400776F726420436F727265637400737973DB
:1004140074656D20756E6C6F636B005061737377D8
:100424006F72642057726F6E670073797374656DB1
:10043400206C6F636B656400436F6E6669726D2038
:1004440050617373776F7264004661696C65640010
:10045400C0F9A4B0999282F880908883C6A1868E50
:10078D000637FFFFFFFFFFFF013D00013E00013275
:07079D00000433000000001E
:10068E00D2AFC294D293758901758CFC758A67D2EC
:10069E00A9D28C7F017E001204DE900454E493F5FF
:1006AE0037120ADD1208E57BFF500F7A0379E4E476
:1006BE00FDFF120A7CE4F53F800D7A0379F3E4FD29
:1006CE00FF120A7C753F01120A4F7A007906120A50
:0906DE0053E4F54012055780FBBE
:080464008F278E268D258C24C4
:10046C00E4F528E47B0AFAF9F8AF27AE26AD25AC03
:10047C00241200C4AF0374292528F8A607AF27AEB1
:10048C0026AD25AC24E47B0AFAF9F81200C48F27B8
:10049C008E268D258C240528E528B406C6752805DE
:1004AC0074292528F8E6700A74372528F876FFD5C4
:1004BC0028EEC3E52864809480401674292528F81A
:1004CC00E690045493FF74372528F8A60715288066
:0104DC00E13E
:0104DD0022FC
:10062D007580FFE53214601C14602514602E146073
:10063D003714604024057048C292C291C2900532B1
:10064D0085378022C292C291D290053285388022A0
:10065D00C292D291C290053285398022C292D29136
:10066D00D2900532853A8022D292C291C290053243
:10067D00853B8022D292C291D290E4F532853C80A6
:01068D00224A
:090871007531067BFE7A00790C5A
:10087A008B2B8A2C892DAF311531EF6026AB2E05D3
:10088A0030E530AA2F7002052F14F912000EFFABC3
:10089A002B052DE52DAA2C7002052C14F9EF120058
:0408AA002780D322AE
:0B0A4F007A0079007BFE753006E4FDA4
:100A5A008B2C8A2D892EAF301530EF6014AB2C0504
:100A6A002EE52EAA2D7002052D14F9ED120027800D
:020A7A00E52273
:1008AE008B248A258926AF2A152AEF6028AB2705C7
:1008BE0029E529AA287002052814F912000EFFABAB
:1008CE00240526E526AA257002052514F912000E28
:0708DE006F60D3C322D32297
:060AA4008B2B8A2C892D2A
:100AAA00E4FFAE051DEE6015AB2B052DE52DAA2C36
:0D0ABA007002052C14F912000E2FFF80E5CC
:010AC700220C
:1008E5007B007A007921752C077D301206E77B00A5
:1008F5007A0079217D06120AA4EFF4B5270E752E2C
:1009050000752F00753021120871D3227BFE7A0005
:06091500790C120A55C323
:01091B0022B9
:1009EF00752EFE752F0075300C7531067B007A0061
:1009FF00792412087A7B007A0079247D06120AA4E2
:100A0F00EFF4F52A7B007A007924752F077D3002E9
:020A1F0007DEF0
:100A21007B007A0079258540307D2A120A5A742587
:100A31002540F9E4FAFBC374079540F530E4FD1253
:0E0A41000A5A7B007A0079250DE4FF020A7C38
:10091C008F24E53F14601014601824027028E54001
:10092C00C3940650218007E540C394065018740008
:10093C008009E540C39406500D74062540F8E52463
:07094C00F20540120A21220E
:10016900E53F1460711470030201F5147003020273
:100179004714700302024714700302026C240560DD
:10018900030202831200037527FE752800752900F2
:10019900752A067BFE7A00790C1208AE7BFF501B8C
:1001A9007A047900E4FDFF120A7C7BFF7A04791155
:1001B9007D01E4FF120A7C753F04227A04791FE469
:1001C900FDFF120A7C7BFF7A04792E7D01E4FF1280
:1001D9000A7C753F05221200037BFF7A04793CE40F
:1001E900FDFF120A7CE4F540753F022212000375F7
:1001F90027FE752800752906752A067BFE7A00797F
:10020900001208AE7BFF501B7A0379E4E4FDFF126C
:100219000A7C752EFE752F007530001208711209BF
:10022900EF804F7A04793CE4FDFF120A7C7BFF7A68
:1002390004794D7D01E4FF120A7C753F0322120007
:10024900037BFF7A0379F3E4FDFF120A7C120A4F5C
:100259007BFE7A007906753006120A5AE4F5407574
:100269003F01221200037BFF7A0379E4E4FDFF12C8
:0B0279000A7C120A4FE4F540F53F221A
:10073B00E53F146012146025240270451200037B00
:10074B00FF7A0379E480091200037BFF7A0379F3C4
:10075B00E4FDFF120A7C120A4FE4F540221200035B
:10076B007BFF7A0379F3E4FDFF120A7C120A4F7BBD
:10077B00FE7A007906753006120A5AE4F540753F89
:02078B00012249
:0205CA008F237D
:1005CC00E523C394304049E523D3943950421209B2
:1005DC001CE47F0AFEFDFCAB36AA35A934A8331205
:1005EC000039A804A905AA06AB07E52324D0FFE42B
:1005FC0034FFFEE4FCFDEB2FF536EA3EF535ED3924
:10060C00F534EC38F533AF36AE35AD34FC0204645A
:10061C00E523B40D03020169E523B41B0312073B68
:01062C0022AB
:1004DE0075240075231075220E752100E4FCFDAB0A
:1004EE0024AA23A922A821120039E47BE87A03F971
:1004FE00F81200C48F248E238D228C21C3E4952400
:10050E00F524E49523F52374019522F522E4952133
:10051E00F521E524241CF524E43523F523E43522C6
:10052E00F522E43521F521AF24AE23AD22FC780867
:10053E001201568F3D85243E5389F0438901853D36
:08054E008C853E8AD2A9D28CF3
:010556002282
:03000B0002082DBB
:10082D00C0E0C0F0C083C082C0D075D000C000C091
:10083D0001C002C003C004C005C006C007853D8CC1
:10084D00853E8A12062D120284D007D006D005D01F
:10085D0004D003D002D001D000D0D0D082D083D02C
:04086D00F0D0E032B5
:100AF1007580FFC290D291D295AF80C295EF20E769
:010B0100F6FD
:010B020022D0
:100B2600AE07120AF1C290C2918E80D295C295226A
:100B3600AE07120AF1D290C2918E80D295C295224A
:100B0300ED7004AC078004EF2440FCEC4480FF024A
:020B13000B26AF
:100A7C008B2C8A2D892E120B03AB2CAA2DA92E128E
:100A8C00000E6013052EE52E7002052D14F91200D0
:080A9C000EFF120B3680E2226E
:050003007F01020B2645
:100ADD007F38120B267F0C120B267F06120B267FFA
:040AED0001020B26D1
:100B1500D2B6D2B700000000C2B600000000C2B7CE
:010B250022AD
:100AC800C2B7C2B600000000D2B700000000D2B61C
:050AD8000000000022F7
:100953007E80EE601B5F7004C2B68002D2B60000D8
:100963000000D2B700000000C2B7EEC313FE80E25E
:10097300D2B600000000D2B7A2B692000000000079
:05098300C2B7A200B3A1
:01098800224C
:10098900D2B67E80EE601D00000000D2B720B60509
:10099900F452078003EE420700000000C2B7EEC31D
:1009A90013FE80E0D2B600000000D2B700000000BC
:0209B900C2B7C3
:0109BB002219
:1009BC00D2B67E80EE601D00000000D2B720B605D6
:1009CC00F452078003EE420700000000C2B7EEC3EA
:1009DC0013FE80E0C2B600000000D2B70000000099
:0209EC00C2B790
:0109EE0022E6
:1006E7008B288A29892A8D2B120B157FA012095373
:1006F7004005120AC880F1AF2B120953120B157F60
:10070700A1120953E52CD3940140191209BCAB2857
:10071700052AE52AAA297002052914F9EF120027EC
:10072700152C80E0120989AB28AA29A92AEF120003
:0407370027020AC8C3
:1007DE008B2B8A2C892D8D2EE52FD39400403F1222
:1007EE000B157FA01209534005120AC880F1AF2ED7
:1007FE00120953E52FD39400401FAB2B052DE52D89
:10080E00AA2C7002052C14F912000EFF12095315B2
:0F081E002F052EE52E540770DA120AC880BA2271
:100B4600313233263435362537383928301B0D27D0
:1007A4009022010101010101010101010101010185
:1007B4000101901201010101010101010101010185
:1007C400010101010108001009FFFFFFFFFFFFFF06
:0907D400FFFFFFFFFFFFFFFFFF25
:10055700E4F521E4F522E52125E025E02422252202
:10056700F8E2FFE52125E025E024122522F8E2FE46
:100577006F603DEE6020E52125E025E02446F58209
:10058700E4340BF583E5822522F582E43583F58390
:10059700E493FF1205CAE52125E025E02422252260
:1005A700F8E2FFE52125E025E024122522F8EFF205
:1005B7000522E522C39404409D0521E521C3940447
:0205C700409161
:0105C900220F
:10028400E50825E025E02409F8E625E0FFA2A4E43A
:10029400334FFFE50825E025E02409F8A607E50823
:1002A40025E025E0240AF8E625E0FFA2A5E4334F83
:1002B400FFE50825E025E0240AF8A607E50825E07F
:1002C40025E0240BF8E625E0FFA2A6E4334FFFE582
:1002D4000825E025E0240BF8A607E50825E025E03D
:1002E400240CF8E625E0FFA2A7E4334FFFE5082538
:1002F400E025E0240CF8A607E4FFE50825E025E066
:1003040024092FF8E6540FFE700EE50825E025E0D9
:1003140024222FF8E4F28010BE0F0DE50825E02515
:10032400E024222FF87401F20FBF04CE050853080D
:1003340003E50814600F1460111460132403701390
:10034400D2A0C2A322D2A3C2A222D2A2C2A122D2EA
:03035400A1C2A0A3
:010357002283
:1003640002068EE493A3F8E493A34003F68001F21B
:1003740008DFF48029E493A3F85407240CC8C3339A
:10038400C4540F4420C8834004F456800146F6DF69
:10039400E4800B010204081020408090078DE47E65
:1003A400019360BCA3FF543F30E509541FFEE4935E
:1003B400A360010ECF54C025E060A840B8E493A325
:1003C400FAE493A3F8E493A3C8C582C8CAC583CA50
:1003D400F0A3C8C582C8CAC583CADFE9DEE780BE08
:0107DD00001B
:10000E00BB010689828A83E0225002E722BBFE02F0
:09001E00E32289828A83E4932223
:10002700BB010689828A83F0225002F722BBFE01B8
:02003700F322B2
:10003900E88FF0A4CC8BF0A42CFCE98EF0A42CFC66
:100049008AF0EDA42CFCEA8EF0A4CDA8F08BF0A4E4
:100059002DCC3825F0FDE98FF0A42CCD35F0FCEB43
:100069008EF0A4FEA9F0EB8FF0A4CFC5F02ECD3908
:0F007900FEE43CFCEAA42DCE35F0FDE43CFC2275
:1000880075F008758200EF2FFFEE33FECD33CDCC2F
:1000980033CCC58233C5829BED9AEC99E5829840B2
:1000A8000CF582EE9BFEED9AFDEC99FC0FD5F0D68F
:1000B800E4CEFBE4CDFAE4CCF9A88222B800C1B9B9
:1000C8000059BA002DEC8BF084CFCECDFCE5F0CBF7
:1000D800F97818EF2FFFEE33FEED33FDEC33FCEB30
:1000E80033FB10D703994004EB99FB0FD8E5E4F9EB
:1000F800FA227818EF2FFFEE33FEED33FDEC33FCD8
:10010800C933C910D7059BE99A4007EC9BFCE99ACB
:10011800F90FD8E0E4C9FAE4CCFB2275F010EF2F10
:10012800FFEE33FEED33FDCC33CCC833C810D70710
:100138009BEC9AE899400AED9BFDEC9AFCE899F84B
:0E0148000FD5F0DAE4CDFBE4CCFAE4C8F922DE
:10015600E8600FECC313FCED13FDEE13FEEF13FF87
:03016600D8F122AB
:00000001FF
