:030000000204E611
:0C04E600787FE4F6D8FD75814B02052DEF
:10080E00313233263435362537383928301B0D270B
:1003FD00C101C180014900024A000002370000011D
:10040D0034000135000136001039010101010101EF
:10041D0001010101010101010101A0405000000095
:10042D0000000000000000000000000000000000BF
:10043D0000000000000000000000000000000000AF
:10044D00000000000000000000000000000000009F
:10045D0000000000000000000000000000900001FE
:10046D00010101010101010101010101010101A0D0
:10047D004010000003E8000003E8000003E800005E
:10048D0003E8000003E8000003E8000003E80000B3
:10049D0003E8000003E8000003E8000003E80000A3
:1004AD0003E8000003E8000003E8000003E8000093
:1004BD0003E80121001022FFFFFFFFFFFFFFFFFFF9
:0B04CD00FFFFFFFFFFFFFF02320000F7
:1006C7007508AAD2AF758901758CFC758A67D2A99E
:1006D700D28C7F017E001205727F807E25120782F1
:1006E7001200001202E77BFE7A0079507D0A12079A
:0306F700AA80F0E6
:1007D100D2AFC294D293D292D291C290E549146021
:1007E1000904700C7580FE0549227580FFE4F54906
:0107F10022E5
:0B081E00EF1FAC0670011E4C70F622AC
:10000E00E4FF7010EF14600A047009D2010FBF00F4
:04001E000022C201F9
:0100220022BB
:10075800E54925E025E0240EF582E43408F583E533
:0D07680082254BF582E43583F583E493FF91
:0D077500BF310302000EBF32031207D12274
:1002E700E4F549E4F54AF54BAF4BE54925E025E050
:1002F70024392FF8E6FEE54925E025E024002FF80C
:10030700E2FF6E6020EF6003120758AF4BE5492507
:10031700E025E024392FF8E6FEE54925E025E0242D
:10032700002FF8EEF2E549C454F02450F8E54B25C8
:10033700E025E028F8E2FC08E2FD08E2FE08E2FF1B
:10034700E4FBFAF9F8C312016E5073E549C454F09F
:100357002410F8AF4BEF25E025E028F8E2FB08E290
:10036700F908E2FA08E2CBF8C000E549C454F024E2
:1003770050F8EF25E025E028F8E2FC08E2FD08E266
:10038700FE08E2FFD000D312016E5049120758E56C
:1003970049C454F02410F8E54B25E025E028F8C0BF
:1003A70000E2FC08E2FD08E2FE08E224C8FFE43EA2
:1003B700FEE43DFDE43CFCD0001201928017E549C4
:1003C700C454F02410F8E54B25E025E028F8120185
:1003D7009E000003E8054BE54B7002054AC39404F1
:1003E700E54A940050030202EF0549E549C3940426
:0503F70050030202EAC0
:0103FC0022DE
:1001B700E52125E025E02422F8E625E0FFA2A4E4D6
:1001C700334FFFE52125E025E02422F8A607E521A6
:1001D70025E025E02423F8E625E0FFA2A5E4334F38
:1001E700FFE52125E025E02423F8A607E52125E002
:1001F70025E02424F8E625E0FFA2A6E4334FFFE537
:100207002125E025E02424F8A607E52125E025E0BF
:100217002425F8E625E0FFA2A7E4334FFFE52125D3
:10022700E025E02425F8A607E4F50DE52125E025DE
:10023700E02422250DF8E6540F703CE52125E02542
:10024700E02439250DF8E4F6E521C454F02450F8EC
:10025700E50D25E025E028F8C000E2FC08E2FD08EE
:10026700E2FE08E22404FFE43EFEE43DFDE43CFC3C
:10027700D0001201928036E52125E025E0242225D1
:100287000DF8E6540FFFBF0F24E52125E025E024F4
:1002970039250DF87601E521C454F02450F8E50D11
:1002A70025E025E028F812019E00000000050DE575
:1002B7000D640460030202320521532103E5211472
:1002C700600F14601114601324037013D2A0C2A32B
:0F02D70022D2A3C2A222D2A2C2A122D2A1C2A02D
:0102E60022F5
:10057200750C00750B10750A0E750900E4FCFDABD5
:100582000CAA0BA90AA809120051E47BE87A03F924
:10059200F81200DC8F0C8E0B8D0A8C09C3E4950CCB
:1005A200F50CE4950BF50B7401950AF50AE495092F
:1005B200F509E50C2421F50CE4350BF50BE4350ABD
:1005C200F50AE43509F509AF0CAE0BAD0AFC780863
:1005D20012017F8F34850C355389F04389018534AC
:0805E2008C85358AD2A9D28C68
:0105EA0022EE
:03000B000205EB00
:1005EB00C0E0C0F0C083C082C0D075D000C000C0D6
:0D05FB0001C002C003C004C005C006C00757
:10060800758CFC758A670533E53370020532C3942F
:100618002CE53294014002D2001201B7300104B235
:0A062800968002D2967F0112072C83
:10063200D007D006D005D004D003D002D001D0001C
:0B064200D0D0D082D083D0F0D0E032C6
:0D04D800C102C10301130001110001120057
:1007820075985053890F438920AB07AA06E4F9F8FC
:100792007F807E70FDFC12064DEFF404F58D858D91
:0807A2008BC2ABD2ACD28E2257
:1007AA008B098A0A890BAF051DEF601AC203AB09D0
:1007BA00050BE50BAA0A7002050A14F9120026F5C0
:0707CA00992003E280FB22ED
:060691008B0E8A0F891098
:10069700EDD395134002AD13E4FFEFC39D501B74D8
:1006A700902FF8E2FEAB0E0510E510AA0F700205B9
:0F06B7000F14F9EE12003F0F80E0E4F513AF05CA
:0106C6002211
:10072C00E513D394004021E511651360078513117F
:10073C00E4F51222E512C3941E5010EF2512F512A7
:0B074C00C3941E4006D20222E4F51107
:01075700227F
:1007F200300218C2027BFE7A0079D07D281206915F
:0B080200AD077BFE7A0079D0120000E9
:01080D0022C8
:030023000206FAD8
:1006FA00C0E0C0D075D000C000C007309814C298BE
:10070A00E513C39440500BAF13051374902FF8E50B
:10071A0099F2309904C299D203D007D000D0D0D030
:02072A00E032BB
:1004F2000206C7E493A3F8E493A34003F68001F253
:1005020008DFF48029E493A3F85407240CC8C3330A
:10051200C4540F4420C8834004F456800146F6DFD9
:10052200E4800B01020408102040809003FDE47E69
:10053200019360BCA3FF543F30E509541FFEE493CE
:10054200A360010ECF54C025E060A840B8E493A395
:10055200FAE493A3F8E493A3C8C582C8CAC583CAC0
:10056200F0A3C8C582C8CAC583CADFE9DEE780BE78
:0104E5000016
:10002600BB010689828A83E0225002E722BBFE02D8
:09003600E32289828A83E493220B
:10003F00BB010689828A83F0225002F722BBFE01A0
:02004F00F3229A
:10005100E88FF0A4CC8BF0A42CFCE98EF0A42CFC4E
:100061008AF0EDA42CFCEA8EF0A4CDA8F08BF0A4CC
:100071002DCC3825F0FDE98FF0A42CCD35F0FCEB2B
:100081008EF0A4FEA9F0EB8FF0A4CFC5F02ECD39F0
:0F009100FEE43CFCEAA42DCE35F0FDE43CFC225D
:1000A00075F008758200EF2FFFEE33FECD33CDCC17
:1000B00033CCC58233C5829BED9AEC99E58298409A
:1000C0000CF582EE9BFEED9AFDEC99FC0FD5F0D677
:1000D000E4CEFBE4CDFAE4CCF9A88222B800C1B9A1
:1000E0000059BA002DEC8BF084CFCECDFCE5F0CBDF
:1000F000F97818EF2FFFEE33FEED33FDEC33FCEB18
:1001000033FB10D703994004EB99FB0FD8E5E4F9D2
:10011000FA227818EF2FFFEE33FEED33FDEC33FCBF
:10012000C933C910D7059BE99A4007EC9BFCE99AB3
:10013000F90FD8E0E4C9FAE4CCFB2275F010EF2FF8
:10014000FFEE33FEED33FDCC33CCC833C810D707F8
:100150009BEC9AE899400AED9BFDEC9AFCE899F833
:0E0160000FD5F0DAE4CDFBE4CCFAE4C8F922C6
:10064D00C2D5E830E70FB2D5E4C39BFBE49AFAE4D8
:10065D0099F9E498F8EC30E717B2D5120683120039
:10066D00DCE4C39BFBE49AFAE499F9E498F880037F
:10067D001200DC30D50DE4C39FFFE49EFEE49DFD2A
:04068D00E49CFC22CB
:10016E00EB9FF5F0EA9E42F0E99D42F0E89C45F0E7
:01017E00225E
:10017F00E8600FECC313FCED13FDEE13FEEF13FF5E
:03018F00D8F12282
:0C019200ECF208EDF208EEF208EFF222A9
:10019E00D083D082E493F208740193F20874029330
:0901AE00F208740393F274047367
:00000001FF
