:03000000020C747B
:0C0C7400787FE4F6D8FD758179020CBB96
:100026003100320033003400350036003700380026
:1000360039002A003000544A203530004D6F64657F
:100046003D00566F6C746167653D006261642063B4
:100056006F6D6D616E642E0D0A00C0F9A4B09992A1
:1000660082F880908883C6A1868EE7DBBD7EBDDBE5
:1000760000E7DBBD7EBDDB7FBFDFEFF7FBFDFEFDEF
:10008600FBF7EFDFBF7FEF0000000000000000EF8E
:10009600DFBF7FF7FBFDFEEFDFBF7FBFDFEFF7FBC5
:1000A600FDFEFDFBF7EFDFBF7FBFDF0000000000B6
:1000B600000000000000000000000000000000003A
:1000C600007F3F1F0F87C3E1F0F8FCFEFCF8F0E16C
:1000D600C3870F1F3F7F00000000FAFDF5F4EBF722
:1000E600D7EFAFDF5FBF0000000000000000C38154
:1000F6009999999981C3EFE7E3E7E7E7E7C3C381F6
:100106009D87C3F9C181C3819DC7C79D81C3CFC7E1
:10011600C3C9C981CFCF81C1F9C3879D81C3C381BB
:10012600F9C1819981C381819FCFCFE7E7E7C38179
:1001360099C3C39981C3C3819981839F83C10000F9
:10014600000000000000020B024B029302BA0310EB
:10015600037003DC0417049705270575062006E0DF
:1001660007B8FC8FFCEFFD45FD6CFDB5FDF5FE2ED9
:10017600FE48FE78FEA3FEB7FEDBFEFBFF1700007F
:1001860031003200330034003500360037003800C5
:10019600390030000101010101010101010101865F
:1001A6000188018A018C018E0190019201940196C9
:1001B600019808090A080C0A090C0908060A080722
:1001C60007060708090508090A0B0B0A09080908A2
:1001D600090A080C0A090C09080606070805050697
:1001E6000708090508090A0B0B0A0908080A0B0C77
:1001F6000C0C0C0C0D0C0B0A0A0A0A0A0B0A09084D
:100206000808070607070809090A090A090A0B0C5C
:100216000C0C0C0C0D0C0B0A0A0A0A0B0A0908072F
:100226000607060708090508090A09090908080F43
:1002360008090A080C0A090C0908060A080707062D
:100246000708090508090A0B0B0A09080908090A1B
:10025600080C0A090C09080606070805050607081A
:10026600090508090A0B0B0A090808020202020618
:10027600020404040202060208040404020204043E
:100286000202040202020208020202020602040438
:100296000402020402020602040402020404020228
:1002A6000402020202080202040404040202020218
:1002B6000404040402020202040402020404020208
:1002C60004020202020802020404040402020202F8
:1002D60004040402020202020204020202020404EC
:1002E60002020602020210020202020602040404CC
:1002F60002020602080404040202040402020402C2
:1003060002020208020202020602040404020204B5
:1003160002020602040402020404020204020202A9
:020326000208CB
:100A9500C180012C00012D00C101C10302310000FC
:100AA50002530000022E00000152010151000155C0
:100AB500000130000725FFFFFFFFFFFF001433FC97
:100AC500F9E7CF9F3F7F3F9FCFE7F9FCFE0000008E
:100AD5000000000A4700000000000000000000C1FF
:0F0AE50002C104012100012200012300012400AD
:1005AD00D2AFC2947F0A7E00120D007F807E25128D
:1005BD0012171212C1E552B40B0040030206B1909E
:1005CD0005D3F82828730206960205F40205FD02EC
:1005DD00060602061802062A02063C02064E02060E
:1005ED00600206720206847BFF7A00792602068A73
:1005FD007BFF7A00792802068A7BFF7A00792AE44C
:10060D00FD7F0512123F120DEC80797BFF7A007988
:10061D002CE4FD7F0512123F12112080677BFF7ABB
:10062D0000792EE4FD7F0512123F120F2980557BB4
:10063D00FF7A007930E4FD7F0512123F120F6280C0
:10064D00437BFF7A007932E4FD7F0512123F120FD2
:10065D009B80317BFF7A007934E4FD7F0512123FD8
:10066D00120FD4801F7BFF7A007936E4FD7F0512CF
:10067D00123F12100D800D7BFF7A007938E4FD7F5B
:10068D000512123FE4F551801E7BFF7A00793AE4A2
:10069D00FD7F0512123F1212AAE4F5511209E7125D
:1006AD00100D80037580FFD294120D7912128EC237
:1006BD00007BFF7A00793CE4FD7F0912123FE4FFD5
:1006CD001210468F587BFF7A007942E4FDFF12121B
:1006DD003FD292D291C2907580FF7B007A0079470C
:1006ED00AF58E4FCFDFE1207267BFF7A0079487DAA
:1006FD0001E4FF12123F7B007A0079477D017F08EC
:10070D0012123FD2992001030205C27B007A0079B3
:09071D00477D081212670205C2B3
:021046008F59C0
:101048001212F97F901210B4400612000E7F00228F
:10105800E5594440FF1210B41212F97F911210B4EE
:10106800121186121153E48F5DF55CF55BF55A1287
:04107800000EAF5D5A
:01107C002251
:100726008B598A5A895B8F5F8E5E8D5D8C5CE47F08
:10073600C47E09FDFCAB5FAA5EA95DA85C12047DC0
:10074600E47BFFFAF9F81205088F5F8E5E8D5D8CEB
:100756005CE47F06FEFDFCAB5FAA5EA95DA85C12A9
:10076600047D8E538F54E47B64FAF9F8AF5FAE5E76
:10077600AD5DAC5C1205088E2E8F2FE47BE87A0304
:10078600F9F8AF5FAE5EAD5DAC5C120508E47B0ABE
:10079600FAF9F8120508EB2430AB59AA5AA95B12EC
:1007A6000437AB59AA5AA95B900001742E1204496A
:1007B600E47B64FAF9F8AF5FAE5EAD5DAC5C120542
:1007C60008E47B0AFAF9F8120508EB2430AB59AABB
:1007D6005AA95B900002120449E47B0AFAF9F8AFC1
:1007E6005FAE5EAD5DAC5C120508E47B0AFAF9F813
:1007F600120508EB2430AB59AA5AA95B90000312E4
:100806000449E47B0AFAF9F8AF5FAE5EAD5DAC5C15
:10081600120508EB2430AB59AA5AA95B90000412C2
:1008260004499000057456120449900006E4020437
:010836004978
:10107D008B718A728973AF771577EF6028AB740522
:10108D0076E576AA757002057514F912041EFFAB8C
:10109D00710573E573AA727002057214F912041EBC
:0710AD006F60D3C322D322C0
:080837008B598A5A895B8D5C24
:10083F00785D7C007D007BFF7A0179A47E007F14B8
:10084F001203F8E4FEEE90019A93FFE55CC39F401C
:10085F0020EE25E0245DF8E6FC08E6AA047574FF97
:10086F008A75F5768F77AB59AA5AA95B12107D401E
:10087F00040EBE0AD0EEB40A005057900891F82823
:10088F0028730208AF0208B40208B90208BE0208B2
:10089F00C30208C80208CD0208D20208D70208DC3A
:1008AF0075520180377552028032755203802D7553
:1008BF00520480287552058023755206801E75528A
:1008CF000780197552088014755209800FE4F5528C
:1008DF00800A7BFF7A0079517D0E8024AB59AA5A8A
:1008EF00A95BAF5C055C8F82758300740D120449A0
:1008FF00AF5C055C8F82758300740A120449AD5C8E
:03090F001212675A
:0109120022C2
:100E5300E521B408005041900E61F8282873020E72
:100E630079020E7B020E81020E83020E87020E8927
:100E7300020E79020E95801405217580DB2280060F
:100E830005218011800005217580BD220521758013
:080E9300E722E4F52175807EE1
:010E9B002234
:100E9C00E522B408005041900EAAF8282873020EDF
:100EAC00C2020EC8020ED2020ECE020ED2020ED218
:100EBC00020ED8020EDE05227580FE2205227580F8
:100ECC00DB220522800F05227580BD22052275804C
:080EDC00E722E4F52275807E97
:010EE40022EB
:100DEC00E4FFFEFDC294D293D292D291C2907401D0
:100DFC00A805088002C333D8FCF4F580E4FEFFC3D9
:100E0C00EF9554EE955350070FBF00010E80F0E59F
:100E1C0051640160040DBD07D5E4FD7480A805087C
:100E2C008002C313D8FCF4F580E55164016017E42B
:100E3C00FEFFC3EF9554EE955350070FBF00010E04
:060E4C0080F00DBD07D58A
:010E5200227D
:10112000E4FDFCC294D293D292D291C290ED900091
:101130007093F580E4FEFFC3EF9554EE955350078E
:101140000FBF00010E80F00DBD00010CED64064CD8
:0211500070DB52
:01115200227A
:100F2900E4FDFCC294D293D292D291C290ED90008A
:100F39007793F580E5516401601EE4FEFFC3EF95E8
:100F490054EE955350070FBF00010E80F00DBD0000
:080F5900010CED64164C70D58B
:010F6100226D
:100F6200E4FDFCC294D293D292D291C290ED900051
:100F72009593F580E5516401601EE4FEFFC3EF9591
:100F820054EE955350070FBF00010E80F00DBD00C7
:080F9200010CED64084C70D560
:010F9A002234
:100F9B00E4FDFCC294D293D292D291C29074332DC1
:100FAB00F8E6F580E5516401601EE4FEFFC3EF95A2
:100FBB0054EE955350070FBF00010E80F00DBD008E
:080FCB00010CED640E4C70D521
:010FD30022FB
:100FD400E4FDFCC294D293D292D291C290ED9000DF
:100FE400E093F580E5516401601EE4FEFFC3EF95D4
:100FF40054EE955350070FBF00010E80F00DBD0055
:08100400010CED640B4C70D5EA
:01100C0022C1
:10100D00E4FDFCC294D293D292D291C290ED9000A5
:10101D00C793F580E5516401601EE4FEFFC3EF95B3
:10102D0054EE955350070FBF00010E80F00DBD001B
:08103D00010CED640B4C70D5B1
:011045002288
:1012AA00E4F559F55AF55BF55CC294D293D292C231
:0612BA0091D2907580C086
:0112C000220B
:100BE000BF310475520122BF320475520222BF3355
:100BF0000475520322BF340475520422BF350475B4
:100C0000520522BF360475520622BF3704755207BB
:100C100022BF380475520822BF390475520922BF19
:100C20003006D202E4F55222BF260A74F02554F5AC
:100C30005474D8800BBF280D74102554F5547427B4
:100C40003553F55322EF64256029EF64276024BFF4
:100C50000D13E523146008047019D201052322C284
:100C600001E4F52322BF1B0B75520AE4F5557551BB
:030C700001C202BC
:010C7300225E
:1009E700E4FBFAFDFCFFFEF9E9C394B94003020AF0
:1009F700943004FDC204EB4A7070E99001B8931477
:100A0700F55925E02468F582E43401F583E493F58C
:100A17002CE55925E02468F582E43401F583740157
:100A270093F52DE990027193FF7E00E55925E024A7
:100A37004CF582E43401F583E493FC740193FD12D1
:100A4700046BEF7802CEC313CE13D8F9FDAC06784A
:100A570002CEC313CE13D8F9FFC3ED9FFFEC9EFE62
:100A6700D2020BBB00010A0209EFC3EB9DEA9C40CF
:100A770007E4FAFB090209EF0BBB00010AEB6F70F1
:0D0A870002EA6E60030209EFC2020209EFED
:010A9400223F
:100D0000755C00755B10755A0E755900E4FCFDABFF
:100D10005CAA5BA95AA85912047DE47BE87A03F91E
:100D2000F81205088F5C8E5B8D5A8C59C3E4955C74
:100D3000F55CE4955BF55B7401955AF55AE49559B9
:100D4000F559E55C240CF55CE4355BF55BE4355A5C
:100D5000F55AE43559F559AF5CAE5BAD5AFC7808ED
:100D600012059A8F2C855C2D5389F0438901852CBF
:080D70008C852D8AD2A9D28CDA
:010D78002258
:03000B00020B3BAA
:100B3B00C0E0C0F0C083C082C0D075D000C000C080
:0D0B4B0001C002C003C004C005C006C00701
:100B5800E4FFFEF578F579852C8C852D8AD2043052
:100B68000214B296D293D292D291C2900FBF0001D2
:100B78000E7580008002D2961209137F011211EBC4
:100B88000524C3E524952FE4952E4031C294D293D1
:100B9800D292D291C290E55224FE600F14601114D3
:100BA800601324037012120E53800D120E9C8008DD
:0D0BB800120DEC8003121120752400D200F4
:100BC500D007D006D005D004D003D002D001D00084
:0B0BD500D0D0D082D083D0F0D0E0322E
:10130A00313233263435362537383928301B0D2704
:100AF4009010010101010101010101010101010144
:100B04000101900001010101010101010101010143
:100B1400010101010108001009FFFFFFFFFFFFFFB2
:090B2400FFFFFFFFFFFFFFFFFFD1
:100D7900E4F559E4F55AE55925E025E02410255A0A
:100D8900F8E2FFE55925E025E02400255AF8E2FEBE
:100D99006F603DEE6020E55925E025E0240AF582E3
:100DA900E43413F583E582255AF582E43583F58326
:100DB900E493FF120BE0E55925E025E02410255ABC
:100DC900F8E2FFE55925E025E02400255AF8EFF27D
:100DD900055AE55AC39404409D0559E559C394043D
:020DE900409137
:010DEB0022E5
:10091300E50825E025E02409F8E625E0FFA2A4E4A4
:10092300334FFFE50825E025E02409F8A607E5088D
:1009330025E025E0240AF8E625E0FFA2A5E4334FED
:10094300FFE50825E025E0240AF8A607E50825E0E9
:1009530025E0240BF8E625E0FFA2A6E4334FFFE5EC
:100963000825E025E0240BF8A607E50825E025E0A7
:10097300240CF8E625E0FFA2A7E4334FFFE50825A2
:10098300E025E0240CF8A607E4FFE50825E025E0D0
:1009930024092FF8E6540FFE700EE50825E025E044
:1009A30024102FF8E4F28010BE0F0DE50825E02592
:1009B300E024102FF87401F20FBF04CE050853088A
:1009C30003E50814600F14601114601324037013FB
:1009D300D2A0C2A322D2A3C2A222D2A2C2A122D255
:0309E300A1C2A00E
:0109E60022EE
:1012F900D2B6D2B700000000C2B600000000C2B7E3
:0113090022C1
:10000E00C2B7C2B600000000D2B700000000D2B6E0
:05001E000000000022BB
:1010B4007E80EE601B5F7004C2B68002D2B6000070
:1010C4000000D2B700000000C2B7EEC313FE80E2F6
:1010D400D2B600000000D2B7A2B69207000000000A
:0510E400C2B7A207B332
:0110E90022E4
:10115300D2B67E80EE601D00000000D2B720B60537
:10116300F452078003EE420700000000C2B7EEC34B
:1011730013FE80E0D2B600000000D2B700000000EA
:02118300C2B7F1
:011185002247
:10118600D2B67E80EE601D00000000D2B720B60504
:10119600F452078003EE420700000000C2B7EEC318
:1011A60013FE80E0C2B600000000D2B700000000C7
:0211B600C2B7BE
:0111B8002214
:0D0B2D00C105C106011B00011900011A00DD
:1012170075985053890F438920AB07AA06E4F9F85C
:101227007F807E70FDFC120EE5EFF404F58D858D51
:081237008BC2ABD2ACD28E22B7
:101267008B718A728973AF051DEF601AC206AB7165
:101277000573E573AA727002057214F912041EF55C
:07128700992006E280FB2222
:0610EA008B598A5A895B54
:1010F000EDD3951B4002AD1BE4FFEFC39D501B7465
:10110000202FF8E2FEAB59055BE55BAA5A70020599
:0F1110005A14F9EE1204370F80E0E4F51BAF0517
:01111F0022AD
:1011EB00E51BD394004021E519651B6007851B198E
:1011FB00E4F51A22E51AC3941E5010EF251AF51ABE
:0B120B00C3941E4006D20522E4F51932
:0112160022B5
:10128E00300518C2057BFE7A0079607D281210EABF
:0B129E00AD077BFE7A00796012083774
:0112A9002222
:030023000211B90E
:1011B900C0E0C0D075D000C000C007309814C298F4
:1011C900E51BC39440500BAF1B051B74202FF8E59A
:1011D90099F2309904C299D206D007D000D0D0D064
:0211E900E032F2
:1012D5007580FFC290D291D295AF80C295EF20E77D
:0112E500F612
:0112E60022E5
:10131A00AE071212D5C290C2918E80D295C2952282
:10132A00AE071212D5D290C2918E80D295C2952262
:1012E700ED7004AC078004EF2440FCEC4480FF025F
:0212F700131AC8
:10123F008B598A5A895B1212E7AB59AA5AA95B12CA
:10124F00041E6013055BE55B7002055A14F9120466
:08125F001EFF12132A80E22297
:1012C1007F3812131A7F0C12131A7F0612131A7F1A
:0412D1000102131AE9
:100C80000205ADE493A3F8E493A34003F68001F2D8
:100C900008DFF48029E493A3F85407240CC8C33375
:100CA000C4540F4420C8834004F456800146F6DF44
:100CB000E4800B0102040810204080900A95E47E35
:100CC000019360BCA3FF543F30E509541FFEE49339
:100CD000A360010ECF54C025E060A840B8E493A300
:100CE000FAE493A3F8E493A3C8C582C8CAC583CA2B
:100CF000F0A3C8C582C8CAC583CADFE9DEE780BEE3
:010B3A0000BA
:10032800E709F608DFFA8046E709F208DFFA803EB7
:1003380088828C83E709F0A3DFFA8032E309F608A4
:10034800DFFA8078E309F208DFFA807088828C830C
:10035800E309F0A3DFFA806489828A83E0A3F608C0
:10036800DFFA805889828A83E0A3F208DFFA804C9A
:1003780080D280FA80C680D4806980F28033801071
:1003880080A680EA809A80A880DA80E280CA8033DA
:1003980089828A83ECFAE493A3C8C582C8CCC58352
:1003A800CCF0A3C8C582C8CCC583CCDFE9DEE78022
:1003B8000D89828A83E493A3F608DFF9ECFAA9F0A1
:1003C800EDFB2289828A83ECFAE0A3C8C582C8CCF7
:1003D800C583CCF0A3C8C582C8CCC583CCDFEADE10
:1003E800E880DB89828A83E493A3F208DFF980CC72
:1003F80088F0EF60010E4E60C388F0ED2402B4046B
:100408000050B9F582EB2402B4040050AF23234511
:06041800822390037873BB
:10041E00BB010689828A83E0225002E722BBFE02DC
:09042E00E32289828A83E493220F
:10043700BB010689828A83F0225002F722BBFE01A4
:02044700F3229E
:10044900F8BB010DE58229F582E5833AF583E8F0E9
:10045900225006E92582C8F622BBFE05E92582C895
:02046900F2227D
:10046B00EF8DF0A4A8F0CF8CF0A428CE8DF0A42EA5
:02047B00FE225F
:10047D00E88FF0A4CC8BF0A42CFCE98EF0A42CFC1E
:10048D008AF0EDA42CFCEA8EF0A4CDA8F08BF0A49C
:10049D002DCC3825F0FDE98FF0A42CCD35F0FCEBFB
:1004AD008EF0A4FEA9F0EB8FF0A4CFC5F02ECD39C0
:0F04BD00FEE43CFCEAA42DCE35F0FDE43CFC222D
:1004CC0075F008758200EF2FFFEE33FECD33CDCCE7
:1004DC0033CCC58233C5829BED9AEC99E58298406A
:1004EC000CF582EE9BFEED9AFDEC99FC0FD5F0D647
:1004FC00E4CEFBE4CDFAE4CCF9A88222B800C1B971
:10050C000059BA002DEC8BF084CFCECDFCE5F0CBAE
:10051C00F97818EF2FFFEE33FEED33FDEC33FCEBE7
:10052C0033FB10D703994004EB99FB0FD8E5E4F9A2
:10053C00FA227818EF2FFFEE33FEED33FDEC33FC8F
:10054C00C933C910D7059BE99A4007EC9BFCE99A83
:10055C00F90FD8E0E4C9FAE4CCFB2275F010EF2FC8
:10056C00FFEE33FEED33FDCC33CCC833C810D707C8
:10057C009BEC9AE899400AED9BFDEC9AFCE899F803
:0E058C000FD5F0DAE4CDFBE4CCFAE4C8F92296
:100EE500C2D5E830E70FB2D5E4C39BFBE49AFAE438
:100EF50099F9E498F8EC30E717B2D5120F1B1205F3
:100F050008E4C39BFBE49AFAE499F9E498F88003B2
:100F150012050830D50DE4C39FFFE49EFEE49DFD58
:040F2500E49CFC222A
:10059A00E8600FECC313FCED13FDEE13FEEF13FF3F
:0305AA00D8F12263
:00000001FF
