:0300000002085E95
:0C085E00787FE4F6D8FD75816D0208A5D6
:0C0C1C0030002B002D002A002F003D00AE
:100B1200015600015B00C100015C00015D00044E52
:100B22000000000004520000000004570000000012
:040B3200024C000071
:10054900D2AF120BCB7F027E001208EA120B930284
:1005590006133001FDC201E50AB41604E4FF804F19
:10056900E50AB40C047F018046E50AB418047F0249
:10057900803DE50AB45E047F038034E50AB40804CB
:100589007F04802BE50AB41C047F058022E50AB4A8
:100599005A047F068019E50AB442047F078010E5F2
:1005A9000AB452047F088007E50AB44A077F091292
:1005B90007C1809EE50AB40705120A1D8094E50A61
:1005C900B40904E4FF8019E50AB415047F01801019
:1005D900E50AB40D047F028007E50AB419087F0310
:1005E9001209C402055BE50AB44306120452020566
:1005F9005BE50AB4440612096302055BE50A644037
:100609006005E50AB44513120B7D7BFF7A0C791C52
:100619007D017F0F120AEA02055BE50AB44605D29D
:100629000002055BE50A6447600302055BC200023C
:02063900055B5F
:060703007B007A00795E24
:0E0709008B338A3489358F398E388D378C3694
:10071700E4F53AF53BEC33501C12041B8F398E3845
:100727008D378C360535E5357002053414F9742D8F
:100737001202EC053BE47B0AFAF9F8AF39AE38ADA3
:1007470037AC36120A70AF03AE3A053A743C2EF84E
:10075700A607AF39AE38AD37AC36E47B0AFAF9F8FD
:10076700120A708F398E388D378C36E4FFFEFDFC08
:10077700AB39AA38A937A836D312042950B7E53AB6
:10078700253BF53BAF3A153AD3EF64809480401D83
:10079700743C253AF8E62430FFAB330535E535AA36
:1007A700347002053414F9EF1202EC80D7AB33AA88
:0907B70034A935E41202ECAF3B59
:0107C0002216
:100AB4008F33ED14601214601714601C2403702526
:100AC4007BFF7A0C791E80167BFF7A0C7920800ECE
:100AD4007BFF7A0C792280067BFF7A0C7924AD3374
:060AE400E4FF120AEA2201
:100B7D00E4F551F550F54FF54EF555F554F553F5A2
:060B8D0052F55C020003BA
:0207C1008F2186
:1007C300E55CD394014003120B7DE55C703CAF51B3
:1007D300AE50AD4FAC4EEC120214E4FBFA79207824
:1007E3004112010EC004C005C006C007AC21EC12C3
:1007F300021ED003D002D001D00012001D120252FB
:100803008F518E508D4F8C4E803AAF55AE54AD53B1
:10081300AC52EC120214E4FBFA7920784112010E77
:10082300C004C005C006C007AC21EC12021ED003F1
:10083300D002D001D00012001D1202528F558E54E7
:100843008D538C521207038F22C374109522FF7BA2
:0A085300007A00795E7D01120AEAC6
:01085D002278
:10096300E55CD394014003120B7DE55C701AAF5133
:10097300AE50AD4FAC4E7B0AFAF9F8120A708F51A4
:100983008E508D4F8C4E8019AF55AE54AD53AC5233
:10099300E47B0AFAF9F8120A708F558E548D538C42
:1009A300521207038F217B5E7D017F01120BDCC393
:1009B30074109521FF7B007A00795E7D01120AEAAB
:0109C3002211
:100A1D00E55CD394014003120B7DE55C700FFB7A0E
:100A2D0000795EAF51AE50AD4FAC4E800E7B007A6B
:100A3D0000795EAF55AE54AD53AC521207098F21FC
:100A4D000521745E2FF8762E7B5E7D017F01120BE2
:100A5D00DCC374109521FF7B007A00795E7D011255
:020A6D000AEA93
:010A6F002264
:0209C4008F2181
:1009C600E55C7052FB7A007923AF51AE50AD4FAC67
:1009D6004E1207098F22C374109522FBE4FDFF1205
:1009E6000BDCC374109522FF7B007A007923E4FDAB
:1009F600120AEAAD217F01120AB47B0E7D017F0146
:100A0600120BDC7BFF7A0C791C7D017F0F120AEA40
:060A160085215D755C0105
:010A1C0022B7
:10045200E55C64016003020548755C02E55D1460B9
:100462002414603C14604E24037065E5512555F553
:100472005AE5503554F559E54F3553F558E54E35A3
:1004820052F557804BC3E5519555F55AE5509554B1
:10049200F559E54F9553F558E54E9552F55780308D
:1004A200AF55AE54AD53AC52AB51AA50A94FA84E62
:1004B2001202FE8013AB55AA54A953A852AF51AEF3
:1004C20050AD4FAC4E120A708F5A8E598D588C57C0
:1004D2007B007A007922AF55AE54AD53AC5212076D
:1004E200098F21AD5DE4FF120AB4C3740F9521FB9D
:1004F200E4FD7F01120BDCC374109521FF7B007AAF
:10050200007922E4FD120AEA7B007A007922AF5ACE
:10051200AE59AD58AC571207098F217BFF7A0C797F
:10052200267D01E4FF120AEAC3740F9521FB7D01C7
:100532007F01120BDCC374109521FF7B007A0079D6
:06054200227D01120AEA0D
:010548002290
:1008EA0075240075231075220E752100E4FCFDABFA
:1008FA0024AA23A922A8211202FEE47BE87A03F99A
:10090A00F81203898F248E238D228C21C3E4952427
:10091A00F524E49523F52374019522F522E4952123
:10092A00F521E524240DF524E43523F523E43522C5
:10093A00F522E43521F521AF24AE23AD22FC780857
:10094A0012043F8F5685245B5389F04389018556EB
:08095A008C855B8AD2A9D28CC6
:010962002272
:03000B00020C0DD7
:0F0C0D0085568C855B8A300003B29632D29632C0
:020B3600C101FB
:100BCB00D2B353890F438910C28EC2ABD28AD2AA39
:010BDB0022F7
:100B3900E4F58DF58BD28E30B307E58DC394404033
:100B4900F6C28EAF8DEFFEAD8B7C00E42DFFEC3E3F
:020B5900FE227A
:100B5B00E4F58DF58BD28E20B307E58DC394404021
:100B6B00F6C28EAF8DEFFEAD8B7C00E42DFFEC3E1D
:020B7B00FE2258
:0300130002063BA7
:10063B00C0E0C0D075D000C000C001C002C003C074
:07064B0004C005C006C00752
:10065200120B5BC3EF9499EE941E4009D3EF9433CF
:10066200EE94224005C28B0206EE120B39C3EF94C0
:1006720066EE940E4009D3EF9400EE94124004C249
:100682008B8069E4FBE4FA120B5BC3EF9439EE94BE
:10069200014009D3EF94CEEE94024004C28B804C09
:1006A200120B39D3EF9439EE9401400EEF94CEEE53
:1006B20094025006E9C313F9801ED3EF9441EE94DD
:1006C200054011EF94D7EE94065009E9C313F9439C
:1006D20001808004C28B80140ABA08AB74082BF81C
:0C06E200A6010BEB6404709DD201C28BDA
:1006EE00D007D006D005D004D003D002D001D00060
:0506FE00D0D0D0E03275
:100BA7007580FFC290D291D295AF80C295EF20E7B2
:010BB700F647
:010BB800221A
:100BED00AE07120BA7C290C2918E80D295C29522EC
:100BFD00AE07120BA7D290C2918E80D295C29522CC
:100BB900ED7004AC078004EF2440FCEC4480FF0294
:020BC9000BED32
:100AEA008B348A358936120BB9AB34AA35A936123A
:100AFA0002D360130536E5367002053514F9120281
:080B0A00D3FF120BFD80E22273
:100BDC00120BB9AF031BEF60077F20120BFD80F3E4
:010BEC0022E6
:050003007F01020BED7E
:100B93007F38120BED7F0C120BED7F06120BED7FEE
:040BA30001020BED53
:100016000202BEE86480F8E933E83360110460F058
:10002600ED33EC337009E8FCE9FDEAFEEBFF220450
:1000360060DED3EB9FEA9EE99DE8C2E78CF0C2F74B
:1000460095F0400CE8CCF8E9CDF9EACEFAEBCFFB17
:1000560012028985D0F05804700320D5B3E80470E5
:10006600075002B2D50202C892D5EC0460F7E4CC80
:10007600C0E0C398F8603B94186008400DD0E0FBE0
:100086000202A0E4FBFAC9FC8028E830E406E4C9D1
:10009600FBE4CAFCE830E305E4C9CACBFCE8540734
:1000A6006010F8C3E913F9EA13FAEB13FBEC13FC3F
:1000B600D8F130F52FC3E49CFCEF9BFFEE9AFEEDE2
:1000C60099FDD0E0FBEF4E4D4C701222DB0302028D
:1000D600C5EC2CFCEF33FFEE33FEED33FDED30E7E0
:1000E600EB0202A0EF2BFFEE3AFEED39FDD0E0FB6E
:1000F60050130BBB00030202C8ED13FDEE13FEEF17
:0801060013FFEC13FC0202A040
:10010E00EC4D6011E8497017ED33EC3304600DE4EB
:10011E00FCFFFEFD22E933E8330470F80202BE1242
:10012E00028958046009E4CC248150062850090243
:10013E0002C82840030202C5C0E0EB4A7044B980F1
:10014E0006D0E0FB0202B4EF4E701CBD8008EBFF40
:10015E00EAFEE9FD80EBE98DF0A4FEE5F00201F781
:10016E00E9CDF9EAFEEBFFEF89F0A4FCE5F0CE89CC
:10017E00F0A42EFFE435F0CD89F0A42DFEE435F089
:10018E008067EF4E7005BD80D780C3EF8BF0A4ACB7
:10019E00F0EE8BF0A42CFCE435F0F8EF8AF0A42CF2
:1001AE00E5F038FCE433CB8DF0A42CFCE5F03BF805
:1001BE00EE8AF0A42CFCE5F038F8E433CF89F0A4F5
:1001CE002CFCE5F038CF3400CE89F0A42FFFE5F0FB
:1001DE003EFEE433C98DF0A42EFEE5F039CD8AF053
:1001EE00A42FFFE5F03EFEE43DFD33D0E0FB5007CB
:1001FE000BBB000F0202C8EC2CFCEF33FFEE33FEFC
:06020E00ED33FD0202A029
:1002140075F020800E75F010800575F0087D007E65
:10022400007F003392D530D50312041BEC33401009
:10023400EF33FFEE33FEED33FDEC33FCD5F0ED226E
:0E024400E5F0247EA2D513CC92E7CDCEFF22AA
:10025200EDD2E7CD33EC3392D524814006E4FFFEA4
:10026200FDFC22FCE4CFCECDCC24E0501174FF8003
:10027200EDC3CC13CCCD13CDCE13CECF13CF0470A0
:07028200F030D5DE02041B81
:10028900E9D2E7C933E833F892D5EDD2E7CD33ECBB
:0702990033FC5002B2D52234
:1002A000EC30E7100FBF000C0EBE00080DBD0004BF
:1002B0000BEB6014A2D5EB13FCED92E7FD2274FF6B
:1002C000FCFDFEFF22E480F8A2D574FF13FC7D80C4
:0302D000E480EFD8
:10086A00020549E493A3F8E493A34003F68001F256
:10087A0008DFF48029E493A3F85407240CC8C3338F
:10088A00C4540F4420C8834004F456800146F6DF5E
:10089A00E4800B0102040810204080900B12E47ED1
:1008AA00019360BCA3FF543F30E509541FFEE49353
:1008BA00A360010ECF54C025E060A840B8E493A31A
:1008CA00FAE493A3F8E493A3C8C582C8CAC583CA45
:1008DA00F0A3C8C582C8CAC583CADFE9DEE780BEFD
:010B380000BC
:1002D300BB010689828A83E0225002E722BBFE0229
:0902E300E32289828A83E493225C
:1002EC00BB010689828A83F0225002F722BBFE01F1
:0202FC00F322EB
:1002FE00E88FF0A4CC8BF0A42CFCE98EF0A42CFC9F
:10030E008AF0EDA42CFCEA8EF0A4CDA8F08BF0A41C
:10031E002DCC3825F0FDE98FF0A42CCD35F0FCEB7B
:10032E008EF0A4FEA9F0EB8FF0A4CFC5F02ECD3940
:0F033E00FEE43CFCEAA42DCE35F0FDE43CFC22AD
:10034D0075F008758200EF2FFFEE33FECD33CDCC67
:10035D0033CCC58233C5829BED9AEC99E5829840EA
:10036D000CF582EE9BFEED9AFDEC99FC0FD5F0D6C7
:10037D00E4CEFBE4CDFAE4CCF9A88222B800C1B9F1
:10038D000059BA002DEC8BF084CFCECDFCE5F0CB2F
:10039D00F97818EF2FFFEE33FEED33FDEC33FCEB68
:1003AD0033FB10D703994004EB99FB0FD8E5E4F923
:1003BD00FA227818EF2FFFEE33FEED33FDEC33FC10
:1003CD00C933C910D7059BE99A4007EC9BFCE99A04
:1003DD00F90FD8E0E4C9FAE4CCFB2275F010EF2F49
:1003ED00FFEE33FEED33FDCC33CCC833C810D70749
:1003FD009BEC9AE899400AED9BFDEC9AFCE899F884
:0E040D000FD5F0DAE4CDFBE4CCFAE4C8F92216
:100A7000C2D5E830E70FB2D5E4C39BFBE49AFAE4B1
:100A800099F9E498F8EC30E717B2D5120AA61203E8
:100A900089E4C39BFBE49AFAE499F9E498F88003AB
:100AA00012038930D50DE4C39FFFE49EFEE49DFD53
:040AB000E49CFC22A4
:0E041B00C3E49FFFE49EFEE49DFDE49CFC22F2
:10042900EB9FF5F0EA9E42F0E99D42F0EC6480C84A
:0604390064809845F022EA
:10043F00E8600FECC313FCED13FDEE13FEEF13FF9B
:03044F00D8F122BF
:00000001FF
