:03000000020447B0
:0C044700787FE4F6D8FD75814C02048E2D
:100BC90089898989898989898989FF7FBFCFDFEFE8
:080BD9000E0C0D090B030706C9
:1006AF00072AFFFFFFFFFFFFFF04260000000004E3
:1006BF003400000000013100013200023A00050150
:0E06CF002100012200012300C10002245F90DF
:080B1000AC36AD37E4FBFAFE40
:100B18008E3F8F407580FFED900BC993FFAE4074F8
:100B28002A2EF8A607EB4A6008742A2EF8E6547FA6
:020B3800F622A3
:10071700D2AFC294D293758901758CFC758A67D262
:10072700A9D28C7F017E00120551900BD3E493F57B
:100737002A120BF61209A65012753A00753B05905E
:100747000BD6E493F530E4F5338010753A00753B2A
:1007570005900BD4E493F5307533011209427A0002
:0D0767007906120946E4F5381205CA80FB38
:100ADF008F428E418D408C3FC2AFE47FEC7E0FFD85
:100AEF00FCAB42AA41A940A83F120039E47B687AC7
:100AFF0001F9F81208B48F298E288D278C26D2AFD2
:010B0F0022C3
:0E0C6F00C2AFE4F529F528F527F526D2AF220D
:0908F800754C067BFE7A00790CB8
:100901008B468A478948AF4C154CEF6026AB4905A9
:100911004BE54BAA4A7002054A14F912000EFFABCF
:10092100460548E548AA477002054714F9EF120049
:040931002780D32226
:10093500753A00753B05900BD4E493F5307A007950
:08094500007BFE754A06E4FD8B
:10094D008B468A478948AF4A154AEF6014AB460576
:10095D0048E548AA477002054714F9ED12002780B3
:02096D00E52281
:10096F008B3F8A408941AF451545EF6028AB420563
:10097F0044E544AA437002054314F912000EFFAB7D
:10098F003F0541E541AA407002054014F912000EDF
:07099F006F60D3C322D322D5
:060B62008B468A4789481A
:100B6800E4FFAE051DEE6015AB460548E548AA470B
:0D0B78007002054714F912000E2FFF80E5F2
:010B8500224D
:1009A6007B007A00793C7547077D201207747B002F
:1009B6007A00793C7D06120B62EFF4B5420E75495A
:1009C60000754A00754B3C1208F8D3227BFE7A006C
:0609D600790C120948C370
:0109DC0022F8
:100AAD007549FE754A00754B0C754C067B007A0036
:100ABD00793F1209017B007A00793F7D06120B62A6
:100ACD00EFF4F5457B007A00793F754A077D2002EA
:020ADD000819F6
:100B86007B007A00793F85384A7D2A12094D743FE9
:100B96002538F9E4FAFBC374079538F54AE4FD02F3
:020BA600094DF7
:100A1300E53314601014601824027027E538C3947A
:100A23000650208007E538C39406501774008009E8
:100A3300E538C39406500C74062538F8EFF20538F0
:040A4300120B8622EA
:100BA8007580FFE59054F84521F590742A2521F8C1
:100BB800E6F580E521C394065003052122E4F521DA
:010BC800220A
:1004D300E4F537F536F535F534AF37AE36AD35AC33
:0104E30034E4
:0804E4008F428E418D408C3FD8
:1004EC00E4F543E47B0AFAF9F8AF42AE41AD40AC17
:1004FC003F1200C4AF0374442543F8A607AF42AEC5
:10050C0041AD40AC3FE47B0AFAF9F81200C48F42CB
:10051C008E418D408C3F0543E543B406C6754305BB
:10052C0074442543F8E6742A2543F876FFD543F046
:10053C00C3E54364809480400B742A2543F876FF0E
:04054C00154380ECE7
:010550002288
:10017F00E53314606E147003020209147003020257
:10018F004A14700302025E14700302028424056095
:10019F000302029C7542FE754300754400754506C7
:1001AF007BFE7A00790C12096F501C7F5A7E007DFE
:1001BF00007C00120ADF753A00753B05900BD7E4FF
:1001CF0093F530753304227FA67EFF7DFF7CFF12EF
:1001DF000ADF753A00753B05900BD8E493F530753F
:1001EF003305221204D3753A00753B05900BD5E405
:1001FF0093F530E4F538753302227542FE754300EE
:10020F007544067545067BFE7A00790012096FE486
:10021F0050151204D47549FE754A00754B0012082B
:10022F00F8120AAD0202871204D4753A00753B0525
:10023F00900BD5E493F530753303221204D31209D2
:10024F00357BFE7A007906754A0612094D801F121A
:10025F0004D31209427BFE7A007906754A06120909
:10026F004D753A00753B05900BD4E493F530E4F5EA
:10027F0038753301221204D3120942753A00753BC7
:0E028F0005900BD6E493F530E4F538F53322F4
:1007C800E53314601C146023240270441204D3120D
:1007D8000942753A00753B05900BD6E493F53080D5
:1007E800061204D3120935E4F538221204D312098B
:1007F800427BFE7A007906754A0612094D753A0061
:10080800753B05900BD4E493F530E4F53875330166
:0108180022BD
:10063D00AF29AE28AD27AC26EC4D4E4F6060E4FFE0
:10064D00FEFDFCAB29AA28A927A826D312015640E6
:10065D001F052353230774FF2529F529E52834FFAA
:10066D00F528E52734FFF527E52634FFF526801E0E
:10067D001523532307E4FAF9F8E5292401F529EAAE
:10068D003528F528E93527F527E83526F526AFB0C5
:10069D005307F0E523900BD99342078FB02243B057
:0106AD000F3D
:0106AE002229
:10029D008F3EE53EC394305003020362E53ED39496
:1002AD00394003020362120A13E53E24D0FFE43401
:1002BD00FFFEE48F378E36F535F534E53A600302EF
:1002CD000358E53B607114605814603E14602414AB
:1002DD0060121470767F05120B10E53B153B706BA9
:1002ED00153A80677F04120B10E53B153B70021524
:1002FD003A8058AC36AD37E4FBFA7F03FE120B188B
:10030D00E53B153B7002153A8041AC36AD37E4FB49
:10031D00FA7F02FE120B18E53B153B7002153A8071
:10032D002AAC36AD37E4FBFA7F01FE120B18E53B24
:10033D00153B7031153A22AC36AD37E4FBFAFFFEB2
:10034D00120B18753A00753B058000E4F537F5364C
:10035D00F535F53422E53EB40D0302017FE53EB4DB
:06036D001B031207C82269
:10055100753F00753E10753D0E753C00E4FCFDAB2A
:100561003FAA3EA93DA83C120039E47BE87A03F991
:10057100F81200C48F3F8E3E8D3D8C3CC3E4953F05
:10058100F53FE4953EF53E7401953DF53DE4953C1E
:10059100F53CE53F241CF53FE4353EF53EE4353DB1
:1005A100F53DE4353CF53CAF3FAE3EAD3DFC780852
:1005B10012016C8F31853F325389F04389018531B6
:0805C1008C85328AD2A9D28C8C
:0105C900220F
:03000B0002086880
:10086800C0E0C0F0C083C082C0D075D000C000C056
:0D08780001C002C003C004C005C006C007D7
:1008850085318C85328A120BA8120373B2003000B1
:040895000312063D07
:10089900D007D006D005D004D003D002D001D000B3
:0B08A900D0D0D082D083D0F0D0E0325D
:100C0A007580FFC290D291D295AF80C295EF20E74E
:010C1A00F6E3
:010C1B0022B6
:100C3F00AE07120C0AC290C2918E80D295C2952235
:100C4F00AE07120C0AD290C2918E80D295C2952215
:100C1C00ED7004AC078004EF2440FCEC4480FF0230
:020C2C000C3F7B
:100B3A008B198A1A891B120C1CAB19AA1AA91B1227
:100B4A00000E6013051BE51B7002051A14F912004A
:080B5A000EFF120C4F80E22295
:050003007F01020C3F2B
:100BF6007F38120C3F7F0C120C3F7F06120C3F7F92
:040C060001020C3F9C
:100C2E00D2B6D2B700000000C2B600000000C2B7B4
:010C3E002293
:100BE100C2B7C2B600000000D2B700000000D2B602
:050BF1000000000022DD
:1009DD007E80EE601B5F7004C2B68002D2B600004E
:1009ED000000D2B700000000C2B7EEC313FE80E2D4
:1009FD00D2B600000000D2B7A2B6920100000000EE
:050A0D00C2B7A201B315
:010A120022C1
:100A4700D2B67E80EE601D00000000D2B720B6054A
:100A5700F452078003EE420700000000C2B7EEC35E
:100A670013FE80E0D2B600000000D2B700000000FD
:020A7700C2B704
:010A7900225A
:100A7A00D2B67E80EE601D00000000D2B720B60517
:100A8A00F452078003EE420700000000C2B7EEC32B
:100A9A0013FE80E0C2B600000000D2B700000000DA
:020AAA00C2B7D1
:010AAC002227
:100774008B438A4489458D46120C2E7FA01209DDD5
:100784004005120BE180F1AF461209DD120C2E7FF9
:10079400A11209DDE547D394014019120A7AAB434B
:1007A4000545E545AA447002054414F9EF120027F3
:1007B400154780E0120A47AB43AA44A945EF12004B
:0407C40027020BE11C
:100819008B468A4789488D49E54AD39400403F125F
:100829000C2E7FA01209DD4005120BE180F1AF49C2
:100839001209DDE54AD39400401FAB460548E54857
:10084900AA477002054714F912000EFF1209DD15B7
:0F0859004A0549E549540770DA120BE180BA22CB
:100C5F00313233263435362537383928301B0D27B6
:1006DD00902201010101010101010101010101014D
:1006ED00010190120101010101010101010101014D
:1006FD00010101010108001009FFFFFFFFFFFFFFCE
:09070D00FFFFFFFFFFFFFFFFFFEC
:1005CA00E4F53CE4F53DE53C25E025E02422253D23
:1005DA00F8E2FFE53C25E025E02412253DF8E2FE9D
:1005EA006F603DEE6020E53C25E025E0245FF58262
:1005FA00E4340CF583E582253DF582E43583F58301
:10060A00E493FF12029DE53C25E025E02422253DE6
:10061A00F8E2FFE53C25E025E02412253DF8EFF25B
:10062A00053DE53DC39404409D053CE53CC3940467
:02063A004091ED
:01063C00229B
:10037300E50825E025E02409F8E625E0FFA2A4E44A
:10038300334FFFE50825E025E02409F8A607E50833
:1003930025E025E0240AF8E625E0FFA2A5E4334F93
:1003A300FFE50825E025E0240AF8A607E50825E08F
:1003B30025E0240BF8E625E0FFA2A6E4334FFFE592
:1003C3000825E025E0240BF8A607E50825E025E04D
:1003D300240CF8E625E0FFA2A7E4334FFFE5082548
:1003E300E025E0240CF8A607E4FFE50825E025E076
:1003F30024092FF8E6540FFE700EE50825E025E0EA
:1004030024222FF8E4F28010BE0F0DE50825E02525
:10041300E024222FF87401F20FBF04CE050853081D
:1004230003E50814600F14601114601324037013A0
:10043300D2A0C2A322D2A3C2A222D2A2C2A122D2FA
:03044300A1C2A0B3
:010446002293
:10045300020717E493A3F8E493A34003F68001F2A1
:1004630008DFF48029E493A3F85407240CC8C333AA
:10047300C4540F4420C8834004F456800146F6DF79
:10048300E4800B01020408102040809006AFE47E54
:10049300019360BCA3FF543F30E509541FFEE4936E
:1004A300A360010ECF54C025E060A840B8E493A335
:1004B300FAE493A3F8E493A3C8C582C8CAC583CA60
:1004C300F0A3C8C582C8CAC583CADFE9DEE780BE18
:0107160000E2
:10000E00BB010689828A83E0225002E722BBFE02F0
:09001E00E32289828A83E4932223
:10002700BB010689828A83F0225002F722BBFE01B8
:02003700F322B2
:10003900E88FF0A4CC8BF0A42CFCE98EF0A42CFC66
:100049008AF0EDA42CFCEA8EF0A4CDA8F08BF0A4E4
:100059002DCC3825F0FDE98FF0A42CCD35F0FCEB43
:100069008EF0A4FEA9F0EB8FF0A4CFC5F02ECD3908
:0F007900FEE43CFCEAA42DCE35F0FDE43CFC2275
:1000880075F008758200EF2FFFEE33FECD33CDCC2F
:1000980033CCC58233C5829BED9AEC99E5829840B2
:1000A8000CF582EE9BFEED9AFDEC99FC0FD5F0D68F
:1000B800E4CEFBE4CDFAE4CCF9A88222B800C1B9B9
:1000C8000059BA002DEC8BF084CFCECDFCE5F0CBF7
:1000D800F97818EF2FFFEE33FEED33FDEC33FCEB30
:1000E80033FB10D703994004EB99FB0FD8E5E4F9EB
:1000F800FA227818EF2FFFEE33FEED33FDEC33FCD8
:10010800C933C910D7059BE99A4007EC9BFCE99ACB
:10011800F90FD8E0E4C9FAE4CCFB2275F010EF2F10
:10012800FFEE33FEED33FDCC33CCC833C810D70710
:100138009BEC9AE899400AED9BFDEC9AFCE899F84B
:0E0148000FD5F0DAE4CDFBE4CCFAE4C8F922DE
:1008B400C2D5E830E70FB2D5E4C39BFBE49AFAE46F
:1008C40099F9E498F8EC30E717B2D51208EA120067
:1008D400C4E4C39BFBE49AFAE499F9E498F880032E
:1008E4001200C430D50DE4C39FFFE49EFEE49DFDD9
:0408F400E49CFC2262
:10015600EB9FF5F0EA9E42F0E99D42F0EC6480C820
:0601660064809845F022C0
:10016C00E8600FECC313FCED13FDEE13FEEF13FF71
:03017C00D8F12295
:00000001FF
