:030000000203DB1D
:0C03DB00787FE4F6D8FD7581370204221B
:10065F00C0F9A4B0999282F880908883C6A1868E43
:10063000C1030630FFFFFFFFFFFFC10401360001C9
:080640003700012E00012F001C
:1005F2008E1B8F1C7580FFED90065F93FFAE1C74FF
:10060200302EF8A607EB4A600874302EF8E6547FC5
:02061200F622CE
:10020C00D2AFD2AFC294D293758901758CFC758A2A
:10021C0067D2A9D28C7F017E001204671206493086
:10022C0004FDC2047580FF7B007A00790812057406
:10023C009200200003020309E509AE087804CEA25F
:10024C00E713CE13D8F8F50B8E0A750C00E509549C
:10025C000FF50DAE0CFF7C037DE81200207C007DB9
:10026C00101200328E0C8F0DAE0AAF0B7C007D0A83
:10027C00120032AC06AD07E4FBFA7F05FE1205F264
:10028C00AE0AAF0B7C007D0A1200327C007D0A1294
:10029C000020C3E50B9FFDE50A9EFC0B7F047E004E
:1002AC001205F2AE0CAF0D7C007D641200327C00A6
:1002BC007D0A120032E41B7F03FE1205F2AE0CAF76
:1002CC000D7C007D0A1200327C007D0A120032E4A3
:1002DC007F02FE1205F2AE0CAF0D7C007D0A1200FF
:1002EC0032E47F01FE1205F2D3E50B941EE50A649D
:1002FC008094804004D203802DC2038029E4FBFA51
:10030C00FDFC7F05FE1205F20BE47F04FE1205F2E4
:10031C00E41B7F03FE1205F2E47F02FE1205F2E4F9
:0C032C007F01FE1205F212064902022BAE
:1004E0007580FFE52E14601C14602514602E1460C6
:1004F0003714604024057048C292C291C290052E04
:1005000085308022C292C291D290052E8531802200
:10051000C292D291C290052E85328022C292D2918F
:10052000D290052E85338022D292C291C290052EA0
:1005300085348022D292C291D290E4F52E85358006
:010540002298
:0A0338008B218A2289238C248D2555
:10034200E4F526F527C3E52464809480501CC3E4B9
:100352009525F525E49524F5240523E5237002056A
:100362002214F9742D12000E0527AE24AF257C004D
:100372007D0A120032AF05AE26052674282EF8A695
:1003820007AE24AF257C007D0A1200328E248F2511
:10039200D3E5259400E5246480948050CDE526259C
:1003A20027F527AF261526D3EF64809480401D746D
:1003B200282526F8E62430FFAB210523E523AA22CF
:1003C2007002052214F9EF12000E80D7AB21AA2287
:0803D200A923E412000EAF277D
:0103DA002200
:10046700751E00751D10751C0E751B00E4FCFDAB99
:100477001EAA1DA91CA81B120087E47BE87A03F9B2
:10048700F81201128F1E8E1D8D1C8C1BC3E4951E46
:10049700F51EE4951DF51D7401951CF51CE4951BCF
:1004A700F51BE51E240CF51EE4351DF51DE4351C72
:1004B700F51CE4351BF51BAF1EAE1DAD1CFC780803
:1004C7001201A48F36851E375389F043890185367B
:0804D7008C85378AD2A9D28C72
:0104DF0022FA
:03000B00020541AA
:09054100C0E0C0D075D000C00775
:10054A0085368C85378A1204E0052FAF2F052FEFE9
:10055A00C394644005752F00D204300304B2968018
:03056A0002D29624
:07056D00D007D0D0D0E0322E
:0B066F000000000000000000DFF62289
:10061400C2AFC2B27F3212066FD2B27F0612066F29
:0B062400A2B2920230B2FDD2AFA202DF
:01062F0022A8
:0205CC00AE0778
:1005CE00C2AF7D01ED601AC2B200005E7004C2B20D
:1005DE008002D2B27F0612066FD2B2ED25E0FD8008
:0305EE00E3D2AFA6
:0105F10022E7
:1005A200C2AF7D01ED601EC2B20000D2B2000020D7
:1005B200B205F452068003ED42067F0612066FED85
:0905C20025E0FD80DFD2AFAF0699
:0105CB00220D
:10064900120614920120010A7FCC1205CC7F4412B4
:0506590005CCA201B375
:01065E002279
:1005740012061492012001227FCC1205CC7FBE12F8
:1005840005CC1205A2AC071205A2EFFEAD047C0057
:0D059400E42DFFEC3E8FF0120068A201B3D1
:0105A1002237
:1003E70002020CE493A3F8E493A34003F68001F21E
:1003F70008DFF48029E493A3F85407240CC8C33317
:10040700C4540F4420C8834004F456800146F6DFE5
:10041700E4800B0102040810204080900630E47E3F
:10042700019360BCA3FF543F30E509541FFEE493DA
:10043700A360010ECF54C025E060A840B8E493A3A1
:10044700FAE493A3F8E493A3C8C582C8CAC583CACC
:10045700F0A3C8C582C8CAC583CADFE9DEE780BE84
:0106480000B1
:10000E00BB010689828A83F0225002F722BBFE01D1
:02001E00F322CB
:10002000EF8DF0A4A8F0CF8CF0A428CE8DF0A42EF4
:02003000FE22AE
:10003200C2D5EC30E709B2D5E4C39DFDE49CFCEEE9
:1000420030E715B2D5E4C39FFFE49EFE1201B7C3A9
:10005200E49DFDE49CFC80031201B730D507C3E4A4
:060062009FFFE49EFE2258
:10006800BB010A89828A83F0E5F0A3F0225006F7E3
:0F00780009A7F01922BBFE06F3E5F009F31922E0
:10008700E88FF0A4CC8BF0A42CFCE98EF0A42CFC18
:100097008AF0EDA42CFCEA8EF0A4CDA8F08BF0A496
:1000A7002DCC3825F0FDE98FF0A42CCD35F0FCEBF5
:1000B7008EF0A4FEA9F0EB8FF0A4CFC5F02ECD39BA
:0F00C700FEE43CFCEAA42DCE35F0FDE43CFC2227
:1000D60075F008758200EF2FFFEE33FECD33CDCCE1
:1000E60033CCC58233C5829BED9AEC99E582984064
:1000F6000CF582EE9BFEED9AFDEC99FC0FD5F0D641
:10010600E4CEFBE4CDFAE4CCF9A88222B800C1B96A
:100116000059BA002DEC8BF084CFCECDFCE5F0CBA8
:10012600F97818EF2FFFEE33FEED33FDEC33FCEBE1
:1001360033FB10D703994004EB99FB0FD8E5E4F99C
:10014600FA227818EF2FFFEE33FEED33FDEC33FC89
:10015600C933C910D7059BE99A4007EC9BFCE99A7D
:10016600F90FD8E0E4C9FAE4CCFB2275F010EF2FC2
:10017600FFEE33FEED33FDCC33CCC833C810D707C2
:100186009BEC9AE899400AED9BFDEC9AFCE899F8FD
:0E0196000FD5F0DAE4CDFBE4CCFAE4C8F92290
:1001A400E8600FECC313FCED13FDEE13FEEF13FF39
:0301B400D8F1225D
:1001B700BC000BBE0029EF8DF084FFADF022E4CC2C
:1001C700F875F008EF2FFFEE33FEEC33FCEE9DECF5
:1001D700984005FCEE9DFE0FD5F0E9E4CEFD22ED3B
:1001E700F8F5F0EE8420D21CFEADF075F008EF2F85
:1001F700FFED33FD4007985006D5F0F222C398FD76
:050207000FD5F0EA2212
:00000001FF
