:030000000207559F
:0C075500787FE4F6D8FD75816602079CF1
:10001E0053696E5761766500313000487A0053712E
:10002E007557617665005472695761766500536144
:10003E007757617665007F98B0C6D9E9F5FCFFFC6D
:10004E00F5E9D9C6B0987F664E382515090200022B
:10005E00091525384E667F98B0C6D9E9F5FCFFFC28
:10006E00F5E9D9C6B0987F664E382515090200020B
:10007E00091525384E667F98B0C6D9E9F5FCFFFC08
:10008E00F5E9D9C6B0987F664E38251509020002EB
:10009E00091525384E66FFFFFFFFFFFFFFFF00002B
:1000AE00000000000000FFFFFFFFFFFFFFFF00004A
:1000BE00000000000000FFFFFFFFFFFFFFFF00003A
:1000CE00000000000000FFFFFFFFFFFFFFFF00002A
:1000DE00000000000000FFFFFFFFFFFFFFFF00001A
:1000EE00000000000000FFFFFFFFFFFFFFFF00000A
:1000FE000000000000000010203040506070809022
:10010E00A0B0C0D0E0F0FFF0E0D0C0B0A090807002
:10011E0060504030201000102030405060708090B1
:10012E00A0B0C0D0E0F0FFF0E0D0C0B0A0908070E2
:10013E006050403020100010203040506070809091
:10014E00A0B0C0D0E0F0FFF0E0D0C0B0A0908070C2
:10015E0060504030201000081018202830384048D9
:10016E0050586068707880889098A0A8B0B8C0C8C1
:10017E00D0D8E0E8F0F800081018202830384048B1
:10018E0050586068707880889098A0A8B0B8C0C8A1
:10019E00D0D8E0E8F0F80008101820283038404891
:1001AE0050586068707880889098A0A8B0B8C0C881
:0601BE00D0D8E0E8F0F8E3
:1009950001650001540001660A0150000152000181
:0B09A5005101015301014C00014D0005
:10034300D2AF120C1C7F017E001207E1754E0075BF
:100353004F447F0A1208CD75660A120BD37BFF7ACE
:1003630000791EE4FDFF120B367BFF7A0079267DB0
:1003730001E4FF120B367BFF7A0079297D017F02AE
:10038300120B3612085A3000FAC200E51BB40910EA
:10039300E566C39419503E0566AF661208CD8035F5
:1003A300E51B6415702FE566D3940240281566AFEC
:1003B300661208CD7A007955AF661205DA8F547B41
:1003C300557D01E4FF120C2D7B007A0079557D01E8
:1003D3007F06120B36E51BB41604E4FF8046E51BCB
:1003E300B40C047F01803DE51BB418047F02803404
:1003F300E51BB45E047F03802BE51BB408047F0474
:100403008022E51BB41C047F058019E51BB45A0444
:100413007F068010E51BB442047F078007E51BB409
:1004230052087F08120B0D020386E51B644A600322
:0B0433000203867F09120B0D020386F6
:020698008F23AE
:10069A00E52364267057E54C7011754C01754E00C0
:1006AA00754FA47BFF7A00792C803DE54CB401128A
:1006BA00754C02754E01754F047BFF7A007934E45C
:1006CA008026E54CB40212754C03754E01754F64D1
:1006DA007BFF7A00793CE4800FE4F54C754E007597
:1006EA004F447BFF7A00791EFDFF120B36E5236427
:1006FA00287057E54C7011754C01754E00754FA462
:10070A007BFF7A00792C803DE54CB40112754C02CE
:10071A00754E01754F047BFF7A007934E48026E533
:10072A004CB40212754C03754E01754F647BFF7A07
:10073A0000793CE4800FE4F54C754E00754F447B1C
:0A074A00FF7A00791EFDFF120B3646
:010754002282
:0605DA007B00E4FCFDFEC5
:0E05E0008B328A3389348F388E378D368C35C6
:1005EE00E4F539F53AEC33501C12030C8F388E3784
:1005FE008D368C350534E5347002053314F9742DBF
:10060E001201DD053AE47B0AFAF9F8AF38AE37ADE0
:10061E0036AC351209ECAF03AE390539743B2EF802
:10062E00A607AF38AE37AD36AC35E47B0AFAF9F82B
:10063E001209EC8F388E378D368C35E4FFFEFDFCBB
:10064E00AB38AA37A936A835D312031A50B7E539F5
:10065E00253AF53AAF391539D3EF64809480401DB1
:10066E00743B2539F8E62430FFAB320534E534AA65
:10067E00337002053314F9EF1201DD80D7AB32AAC5
:09068E0033A934E41201DDAF3A96
:010697002240
:100B0D00E56675F00AA42FF5667A007922FF1205C5
:100B1D00DA8F217B227D01E4FF120C2D7B007A0000
:090B2D0079227D017F06020B36DE
:100BA2008F4B120C0B7F90120A714002800A7F4019
:0C0BB200120A71AF4B120A71120BBE2226
:1008CD00EF75F060A4AEF0FBAA06E4F9F8FF7E1018
:1008DD007D0EFC1209EC8F248E238D228C21C3E416
:1008ED009524F524E49523F52374019522F522E44E
:1008FD009521F521E5242424F524E43523F523E47D
:10090D003522F522E43521F521AF24AE23AD22FCAD
:10091D0078081203308F5185245353890F43891062
:0C092D0085518D85538BD2ABD2BBD28E8E
:01093900229B
:1007E10075240075231075220E752100E4FCFDAB04
:1007F10024AA23A922A8211201EFE47BE87A03F9B4
:10080100F812027A8F248E238D228C21C3E4952441
:10081100F524E49523F52374019522F522E495212D
:10082100F521E524241CF524E43523F523E43522C0
:10083100F522E43521F521AF24AE23AD22FC780861
:100841001203308F508524525389F043890185501A
:080851008C85528AD2A9D28CD9
:01085900227C
:03000B00020A30B6
:100A3000C0E0C0F0C083C082C0D075D000C000C08C
:100A400001C002C003C004C005C006C00785508CA9
:100A500085528A12043ED007D006D005D004D003B8
:100A6000D002D001D000D0D0D082D083D0F0D0E05E
:010A70003253
:03001B0002093A9D
:10093A00C0E0C0F0C083C082C0D075D000C000C083
:0D094A0001C002C003C004C005C006C00704
:1009570085518D85538BE54F254DF582E4354EF551
:1009670083E493FF120BA2054DE54DC3946040034A
:03097700754D00BB
:10097A00D007D006D005D004D003D002D001D000D1
:0B098A00D0D0D082D083D0F0D0E0327B
:100C0B00D2B6D2B700000000C2B600000000C2B7D7
:010C1B0022B6
:100BBE00C2B7C2B600000000D2B700000000D2B625
:050BCE00000000002200
:100A71007E80EE601B5F7004C2B68002D2B60000B9
:100A81000000D2B700000000C2B7EEC313FE80E23F
:100A9100D2B600000000D2B7A2B692010000000059
:050AA100C2B7A201B381
:010AA600222D
:100AA700D2B67E80EE601D00000000D2B720B605EA
:100AB700F452078003EE420700000000C2B7EEC3FE
:100AC70013FE80E0D2B600000000D2B7000000009D
:020AD700C2B7A4
:010AD90022FA
:100ADA00D2B67E80EE601D00000000D2B720B605B7
:100AEA00F452078003EE420700000000C2B7EEC3CB
:100AFA0013FE80E0C2B600000000D2B7000000007A
:020B0A00C2B770
:010B0C0022C6
:100C3E00313233263435362537383928301B0D27D7
:1009B0009010010101010101010101010101010189
:1009C0000101900001010101010101010101010189
:1009D000010101010108001009FFFFFFFFFFFFFFF8
:0909E000FFFFFFFFFFFFFFFFFF17
:10085A00E4F521E4F522E52125E025E0241025220E
:10086A00F8E2FFE52125E025E024002522F8E2FE52
:10087A006F603DEE6020E52125E025E0243EF5820B
:10088A00E4340CF583E5822522F582E43583F58389
:10089A00E493FF120698E52125E025E0241025229D
:1008AA00F8E2FFE52125E025E024002522F8EFF211
:1008BA000522E522C39404409D0521E521C3940441
:0208CA0040915B
:0108CC002209
:10043E00E50825E025E02409F8E625E0FFA2A4E47E
:10044E00334FFFE50825E025E02409F8A607E50867
:10045E0025E025E0240AF8E625E0FFA2A5E4334FC7
:10046E00FFE50825E025E0240AF8A607E50825E0C3
:10047E0025E0240BF8E625E0FFA2A6E4334FFFE5C6
:10048E000825E025E0240BF8A607E50825E025E081
:10049E00240CF8E625E0FFA2A7E4334FFFE508257C
:1004AE00E025E0240CF8A607E4FFE50825E025E0AA
:1004BE0024092FF8E6540FFE700EE50825E025E01E
:1004CE0024102FF8E4F28010BE0F0DE50825E0256C
:1004DE00E024102FF87401F20FBF04CE0508530864
:1004EE0003E50814600F14601114601324037013D5
:1004FE00D2A0C2A322D2A3C2A222D2A2C2A122D22F
:03050E00A1C2A0E7
:0105110022C7
:0209E900C1004B
:100C1C00D2B353890F438910C28EC2ABD28AD2AAE7
:010C2C0022A5
:100B5E00E4F58DF58BD28E30B307E58DC39440400E
:100B6E00F6C28EAF8DEFFEAD8B7C00E42DFFEC3E1A
:020B7E00FE2255
:100B8000E4F58DF58BD28E20B307E58DC3944040FC
:100B9000F6C28EAF8DEFFEAD8B7C00E42DFFEC3EF8
:020BA000FE2233
:03001300020512D1
:10051200C0E0C0D075D000C000C001C002C003C09E
:0705220004C005C006C0077C
:10052900120B80C3EF9499EE941E4009D3EF9433D4
:10053900EE94224005C28B0205C5120B5EC3EF94EF
:1005490066EE940E4009D3EF9400EE94124004C273
:100559008B8069E4FBE4FA120B80C3EF9439EE94C3
:10056900014009D3EF94CEEE94024004C28B804C33
:10057900120B5ED3EF9439EE9401400EEF94CEEE58
:1005890094025006E9C313F9801ED3EF9441EE9407
:10059900054011EF94D7EE94065009E9C313F943C6
:1005A90001808004C28B80140ABA08AB74192BF835
:0C05B900A6010BEB6404709DD200C28B05
:1005C500D007D006D005D004D003D002D001D0008A
:0505D500D0D0D0E0329F
:100BE7007580FFC290D291D295AF80C295EF20E772
:010BF700F607
:010BF80022DA
:100C4E00AE07120BE7C290C2918E80D295C295224A
:100C5E00AE07120BE7D290C2918E80D295C295222A
:100BF900ED7004AC078004EF2440FCEC4480FF0254
:020C09000C4E8F
:100B36008B328A338934120BF9AB32AA33A93412B9
:100B460001C460130534E5347002053314F912014B
:080B5600C4FF120C5E80E222D4
:100C2D00120BF9AF031BEF60077F20120C5E80F3F0
:010C3D002294
:050003007F01020C4E1C
:100BD3007F38120C4E7F0C120C4E7F06120C4E7F88
:040BE30001020C4EB1
:10076100020343E493A3F8E493A34003F68001F268
:1007710008DFF48029E493A3F85407240CC8C33399
:10078100C4540F4420C8834004F456800146F6DF68
:10079100E4800B0102040810204080900995E47E5A
:1007A100019360BCA3FF543F30E509541FFEE4935D
:1007B100A360010ECF54C025E060A840B8E493A324
:1007C100FAE493A3F8E493A3C8C582C8CAC583CA4F
:1007D100F0A3C8C582C8CAC583CADFE9DEE780BE07
:0109EB00000B
:1001C400BB010689828A83E0225002E722BBFE0239
:0901D400E32289828A83E493226C
:1001DD00BB010689828A83F0225002F722BBFE0101
:0201ED00F322FB
:1001EF00E88FF0A4CC8BF0A42CFCE98EF0A42CFCAF
:1001FF008AF0EDA42CFCEA8EF0A4CDA8F08BF0A42D
:10020F002DCC3825F0FDE98FF0A42CCD35F0FCEB8B
:10021F008EF0A4FEA9F0EB8FF0A4CFC5F02ECD3950
:0F022F00FEE43CFCEAA42DCE35F0FDE43CFC22BD
:10023E0075F008758200EF2FFFEE33FECD33CDCC77
:10024E0033CCC58233C5829BED9AEC99E5829840FA
:10025E000CF582EE9BFEED9AFDEC99FC0FD5F0D6D7
:10026E00E4CEFBE4CDFAE4CCF9A88222B800C1B901
:10027E000059BA002DEC8BF084CFCECDFCE5F0CB3F
:10028E00F97818EF2FFFEE33FEED33FDEC33FCEB78
:10029E0033FB10D703994004EB99FB0FD8E5E4F933
:1002AE00FA227818EF2FFFEE33FEED33FDEC33FC20
:1002BE00C933C910D7059BE99A4007EC9BFCE99A14
:1002CE00F90FD8E0E4C9FAE4CCFB2275F010EF2F59
:1002DE00FFEE33FEED33FDCC33CCC833C810D70759
:1002EE009BEC9AE899400AED9BFDEC9AFCE899F894
:0E02FE000FD5F0DAE4CDFBE4CCFAE4C8F92227
:1009EC00C2D5E830E70FB2D5E4C39BFBE49AFAE436
:1009FC0099F9E498F8EC30E717B2D5120A221202F2
:100A0C007AE4C39BFBE49AFAE499F9E498F880033E
:100A1C0012027A30D50DE4C39FFFE49EFEE49DFDE7
:040A2C00E49CFC2228
:0E030C00C3E49FFFE49EFEE49DFDE49CFC2202
:10031A00EB9FF5F0EA9E42F0E99D42F0EC6480C85A
:06032A0064809845F022FA
:10033000E8600FECC313FCED13FDEE13FEEF13FFAB
:03034000D8F122CF
:00000001FF
