:0300000002033EBA
:0C033E00787FE4F6D8FD7581520203853B
:100E280089898989898989898989FFFFFFFFFFFF66
:080E38000E0C0D090B03070667
:1007A2000633FFFFFFFFFFFF042F00000000043CA1
:1007B20000000000013900013A000121000122007D
:1007C2000123000124000127000128000129000162
:0C07D2002A00022B0000C100022D5F90E5
:100AD900D2AFC294D293758901758CFC758A67D29D
:100AE900A9D28C7F017E00120729900E32E493F57A
:100AF90033120E55120C235008754102E4F53B8060
:100B090006E4F541753B01120D8D7A007909120D44
:090B190091E4F54012088D80FB07
:0A0EDC00D292D291C2907580FC22E0
:100D5C008F0E8E0D8D0C8C0BC2AFE47FEC7E0FFDD5
:100D6C00FCAB0EAA0DA90CA80B120039E47B687A17
:100D7C0001F9F8120B6B8F328E318D308C2FD2AF74
:010D8C002244
:0E0ECE00C2AFE4F532F531F530F52FD2AF2288
:090BAF00751B097BFE7A00791226
:100BB8008B158A168917AF1B151BEF6026AB180516
:100BC8001AE51AAA197002051914F912000EFFABDA
:100BD800150517E517AA167002051614F9EF120085
:040BE8002780D3226D
:0B0D8D007A0079007BFE751909E4FD77
:100D98008B158A168917AF191519EF6014AB15054D
:100DA80017E517AA167002051614F9ED1200278028
:020DB800E52232
:100BEC008B0B8A0C890DAF111511EF6028AB0E051C
:100BFC0010E510AA0F7002050F14F912000EFFABCE
:100C0C000B050DE50DAA0C7002050C14F912000E63
:070C1C006F60D3C322D32255
:060DE2008B158A1689172B
:100DE800E4FFAE051DEE6015AB150517E517AA164D
:0D0DF8007002051614F912000E2FFF80E5A1
:010E050022CA
:100C23007B007A00790875160A7D20120A367B004C
:100C33007A0079087D09120DE2EFF4B5110E7518EB
:100C430000751900751A08120BAFD3227BFE7A00C8
:060C53007912120D93C39B
:010C59002278
:100D2A007518FE751900751A12751B097B007A0071
:100D3A00790B120BB87B007A00790B7D09120DE250
:100D4A00EFF4F5147B007A00790B75190A7D2002FD
:020D5A000A8A03
:100E06007B007A00790B8540197D2A120D98740BA8
:100E16002540F9E4FAFBC3740A9540F519E4FD028E
:020E26000D9825
:100C9000E53B14601014601824027027E540C394EB
:100CA0000950208007E540C394095017740080095B
:100CB000E540C39409500C74092540F8EFF2054053
:040CC000120E0622E8
:0806AF008F0E8E0D8D0C8C0BDB
:1006B700E4F50FE47B0AFAF9F8AF0EAE0DAD0CAC1A
:1006C7000B1200C4AF037410250FF8A607AF0EAEC8
:1006D7000DAD0CAC0BE47B0AFAF9F81200C48F0ECF
:1006E7008E0D8D0C8C0B050FE50FB406C6750F0527
:1006F7007410250FF8E6700A7433250FF876FFD5C6
:100707000FEEC3E50F6480948040167410250FF830
:10071700E6900E2893FF7433250FF8A607150F8070
:01072700E1F0
:0107280022AE
:1009D5007580FFE52114601C14602514602E1460D9
:1009E5003714604024057048C292C291C290052117
:1009F50085338022C292C291D2900521853480220E
:100A0500C292D291C290052185358022C292D2919F
:100A1500D290052185368022D292C291C2900521BD
:100A250085378022D292C291D290E4F52185388013
:010A3500229E
:100448007580FFE522B407005070900459F82828F9
:100458007302046E02047A02048602049202049E65
:100468000204AA0204B6C292C291C2900522853340
:100478008022C292C291D290052285348022C292F3
:10048800D291C290052285358022C292D291D29013
:10049800052285368022D292C291C29005228537E4
:1004A8008022D292C291D290052285388022D2929F
:0A04B800D291C290E4F52275807F16
:0104C2002217
:1004C3007580FFE523B4070050709004D4F8282802
:1004D300730204E90204F502050102050D02051980
:1004E300020525020531C292C291C29005238533CC
:1004F3008022C292C291D290052385348022C29277
:10050300D291C290052385358022C292D291D29096
:10051300052385368022D292C291C2900523853766
:100523008022D292C291D290052385388022D29222
:0A053300D291C290E4F5237580BF59
:01053D00229B
:10053E007580FFE524B40700507090054FF8282809
:10054E007302056402057002057C0205880205949B
:10055E000205A00205ACC292C291C2900524853359
:10056E008022C292C291D290052485348022C292FA
:10057E00D291C290052485358022C292D291D2901A
:10058E00052485368022D292C291C29005248537E9
:10059E008022D292C291D290052485388022D292A6
:0A05AE00D291C290E4F5247580CFCD
:0105B8002220
:1005B9007580FFE527B4070050709005CAF8282810
:1005C900730205DF0205EB0205F702060302060FB7
:1005D90002061B020627C292C291C29005278533E3
:1005E9008022C292C291D290052785348022C2927C
:1005F900D291C290052785358022C292D291D2909C
:10060900052785368022D292C291C2900527853767
:100619008022D292C291D290052785388022D29227
:0A062900D291C290E4F5277580F32A
:0106330022A4
:100634007580FFE528B407005070900645F8282817
:100644007302065A02066602067202067E02068AD1
:100654000206960206A2C292C291C2900528853370
:100664008022C292C291D290052885348022C292FF
:10067400D291C290052885358022C292D291D2901F
:10068400052885368022D292C291C29005288537EA
:100694008022D292C291D290052885388022D292AB
:0A06A400D291C290E4F5287580FCA5
:0106AE002229
:1003CA00E4F53FF53EF53DF53CAF3FAE3EAD3DAC05
:0103DA003CE6
:0803DB008F0E8E0D8D0C8C0BB2
:1003E300E4F50FE47B0AFAF9F8AF0EAE0DAD0CACF1
:1003F3000B1200C4AF037410250FF8A607AF0EAE9F
:100403000DAD0CAC0BE47B0AFAF9F81200C48F0EA5
:100413008E0D8D0C8C0B050FE50FB406C6750F05FD
:100423007410250FF8E67433250FF876FFD50FF017
:10043300C3E50F64809480400B7433250FF876FF77
:04044300150F80EC25
:010447002292
:10017F00E53B14605A14606414700302021E14707D
:10018F000302024014700302025B240560030202A3
:10019F0069120003750EFE750F00751000751109B9
:1001AF007BFE7A007912120BEC50127F5A7E007D83
:1001BF00007C00120D5C754103753B04227FA67E07
:1001CF00FF7DFF7CFF120D5C754104753B0522120C
:1001DF0003CA754101E4F540753B0222750EFE75A9
:1001EF000F007510097511097BFE7A007900120B4B
:1001FF00EC50151203CA7518FE751900751A001206
:10020F000BAF120D2A02025E754101753B032212DC
:10021F0003CAE4F5417BFE7A007900751909FD12D6
:10022F000D987BFE7A007909751909120D98E480F3
:10023F00151203CA120D8D7BFE7A00790975190903
:10024F00120D98E4F541F540753B01221203CA12D5
:0B025F000D8D754102E4F540F53B22D7
:100B2200E53B1460121460262402703C1203CA12C0
:100B32000D8D7541028013120003E4F5417BFE7AAC
:100B4200007900751909FD120D98E4F54022120092
:100B520003120D8D7BFE7A007909751909120D9821
:080B6200E4F541F540753B018B
:010B6A002268
:10090000AF32AE31AD30AC2FEC4D4E4F6060E4FFF6
:10091000FEFDFCAB32AA31A930A82FD312015640FC
:100920001F052A532A0774FF2532F532E53134FFBB
:10093000F531E53034FFF530E52F34FFF52F801E1B
:10094000152A532A07E4FAF9F8E5322401F532EAC8
:100950003531F531E93530F530E8352FF52FAFB0C9
:100960005307F0E52A900E389342078FB02243B028
:010970000F77
:010971002263
:020972008F0AEA
:10097400E50AC394304049E50AD394395042120C35
:1009840090E47F0AFEFDFCAB3FAA3EA93DA83C12C1
:100994000039A804A905AA06AB07E50A24D0FFE498
:1009A40034FFFEE4FCFDEB2FF53FEA3EF53EED3966
:1009B400F53DEC38F53CAF3FAE3EAD3DFC0206AF35
:1009C400E50AB40D0302017FE50AB41B03120B22EE
:0109D4002200
:10072900750B00750A1075090E750800E4FCFDAB20
:100739000BAA0AA909A808120039E47BE87A03F987
:10074900F81200C48F0B8E0A8D098C08C3E4950B2F
:10075900F50BE4950AF50A74019509F509E495087C
:10076900F508E50B241CF50BE4350AF50AE435090F
:10077900F509E43508F508AF0BAE0AAD09FC7808B0
:1007890012016C8F39850B3A5389F04389018539F8
:080799008C853A8AD2A9D28CAA
:0107A1002235
:03000B00020818D0
:10081800C0E0C0F0C083C082C0D075D000C000C0A6
:0D08280001C002C003C004C005C006C00727
:1008350085398C853A8A1209D512026AE541146018
:10084500121460141460161460182404701712042E
:100855004880121204C3800D12053E80081205B9A6
:0D0865008003120634B200300003120900B7
:10087200D007D006D005D004D003D002D001D000DA
:0B088200D0D0D082D083D0F0D0E03284
:100E69007580FFC290D291D295AF80C295EF20E7ED
:010E7900F682
:010E7A002255
:100E9E00AE07120E69C290C2918E80D295C2952273
:100EAE00AE07120E69D290C2918E80D295C2952253
:100E7B00ED7004AC078004EF2440FCEC4480FF02CF
:020E8B000E9EB9
:100DBA008B1C8A1D891E120E7BAB1CAA1DA91E1232
:100DCA00000E6013051EE51E7002051D14F91200BF
:080DDA000EFF120EAE80E222B2
:050003007F01020E9ECA
:100E55007F38120E9E7F0C120E9E7F06120E9E7F0D
:040E650001020E9EDA
:100E8D00D2B6D2B700000000C2B600000000C2B753
:010E9D002232
:100E4000C2B7C2B600000000D2B700000000D2B6A0
:050E500000000000227B
:100C5A007E80EE601B5F7004C2B68002D2B60000CE
:100C6A000000D2B700000000C2B7EEC313FE80E254
:100C7A00D2B600000000D2B7A2B69201000000006E
:050C8A00C2B7A201B396
:010C8F002242
:100CC400D2B67E80EE601D00000000D2B720B605CB
:100CD400F452078003EE420700000000C2B7EEC3DF
:100CE40013FE80E0D2B600000000D2B7000000007E
:020CF400C2B785
:010CF60022DB
:100CF700D2B67E80EE601D00000000D2B720B60598
:100D0700F452078003EE420700000000C2B7EEC3AB
:100D170013FE80E0C2B600000000D2B7000000005A
:020D2700C2B751
:010D290022A7
:100A36008B128A1389148D15120E8D7FA0120C5AF3
:100A46004005120E4080F1AF15120C5A120E8D7F22
:100A5600A1120C5AE516D394014019120CF7AB12E9
:100A66000514E514AA137002051314F9EF120027F2
:100A7600151680E0120CC4AB12AA13A914EF1200CB
:040A860027020E40F5
:100A8A008B158A1689178D18E519D39400403F12E1
:100A9A000E8D7FA0120C5A4005120E4080F1AF183D
:100AAA00120C5AE519D39400401FAB150517E51728
:100ABA00AA167002051614F912000EFF120C5A1526
:0F0ACA00190518E518540770DA120E4080BA2289
:100EBE00313233263435362537383928301B0D2755
:1007DE00902B010101010101010101010101010142
:1007EE000101901B01010101010101010101010142
:1007FE00010101010142001043FFFFFFFFFFFFFF58
:09080E00FFFFFFFFFFFFFFFFFFEA
:10088D00E4F508E4F509E50825E025E0242B250924
:10089D00F8E2FFE50825E025E0241B2509F8E2FE36
:1008AD006F603DEE6020E50825E025E024BEF58271
:1008BD00E4340EF583E5822509F582E43583F5836D
:1008CD00E493FF120972E50825E025E0242B2509A4
:1008DD00F8E2FFE50825E025E0241B2509F8EFF2F5
:1008ED000509E509C39404409D0508E508C3940472
:0208FD00409128
:0108FF0022D6
:10026A00E54225E025E02443F8E625E0FFA2A4E4E0
:10027A00334FFFE54225E025E02443F8A607E5428F
:10028A0025E025E02444F8E625E0FFA2A5E4334F63
:10029A00FFE54225E025E02444F8A607E54225E0EB
:1002AA0025E02445F8E625E0FFA2A6E4334FFFE562
:1002BA004225E025E02445F8A607E54225E025E0A9
:1002CA002446F8E625E0FFA2A7E4334FFFE54225DE
:1002DA00E025E02446F8A607E4FFE54225E025E00C
:1002EA0024432FF8E6540FFE700EE54225E025E080
:1002FA00242B2FF8E4F28010BE0F0DE54225E025ED
:10030A00E0242B2FF87401F20FBF04CE05425342AA
:10031A0003E54214600F1460111460132403701370
:10032A00D2A0C2A322D2A3C2A222D2A2C2A122D204
:03033A00A1C2A0BD
:01033D00229D
:10034A00020AD9E493A3F8E493A34003F68001F2E6
:10035A0008DFF48029E493A3F85407240CC8C333B4
:10036A00C4540F4420C8834004F456800146F6DF83
:10037A00E4800B01020408102040809007A2E47E6A
:10038A00019360BCA3FF543F30E509541FFEE49378
:10039A00A360010ECF54C025E060A840B8E493A33F
:1003AA00FAE493A3F8E493A3C8C582C8CAC583CA6A
:1003BA00F0A3C8C582C8CAC583CADFE9DEE780BE22
:0108170000E0
:10000E00BB010689828A83E0225002E722BBFE02F0
:09001E00E32289828A83E4932223
:10002700BB010689828A83F0225002F722BBFE01B8
:02003700F322B2
:10003900E88FF0A4CC8BF0A42CFCE98EF0A42CFC66
:100049008AF0EDA42CFCEA8EF0A4CDA8F08BF0A4E4
:100059002DCC3825F0FDE98FF0A42CCD35F0FCEB43
:100069008EF0A4FEA9F0EB8FF0A4CFC5F02ECD3908
:0F007900FEE43CFCEAA42DCE35F0FDE43CFC2275
:1000880075F008758200EF2FFFEE33FECD33CDCC2F
:1000980033CCC58233C5829BED9AEC99E5829840B2
:1000A8000CF582EE9BFEED9AFDEC99FC0FD5F0D68F
:1000B800E4CEFBE4CDFAE4CCF9A88222B800C1B9B9
:1000C8000059BA002DEC8BF084CFCECDFCE5F0CBF7
:1000D800F97818EF2FFFEE33FEED33FDEC33FCEB30
:1000E80033FB10D703994004EB99FB0FD8E5E4F9EB
:1000F800FA227818EF2FFFEE33FEED33FDEC33FCD8
:10010800C933C910D7059BE99A4007EC9BFCE99ACB
:10011800F90FD8E0E4C9FAE4CCFB2275F010EF2F10
:10012800FFEE33FEED33FDCC33CCC833C810D70710
:100138009BEC9AE899400AED9BFDEC9AFCE899F84B
:0E0148000FD5F0DAE4CDFBE4CCFAE4C8F922DE
:100B6B00C2D5E830E70FB2D5E4C39BFBE49AFAE4B5
:100B7B0099F9E498F8EC30E717B2D5120BA11200F3
:100B8B00C4E4C39BFBE49AFAE499F9E498F8800374
:100B9B001200C430D50DE4C39FFFE49EFEE49DFD1F
:040BAB00E49CFC22A8
:10015600EB9FF5F0EA9E42F0E99D42F0EC6480C820
:0601660064809845F022C0
:10016C00E8600FECC313FCED13FDEE13FEEF13FF71
:03017C00D8F12295
:00000001FF
