:030000000202F306
:0C02F300787FE4F6D8FD75815902033ACB
:1004F400313233263435362537383928301B0D2729
:10026000C100015700025800000245000001420091
:100270000143000144001047010101010101010196
:100280000101010101010101A04000000000000086
:10029000000000000000000000000000000000005E
:1002A000000000000000000000000000000000004E
:1002B000000000000000000000000000000000003E
:1002C00000000000000000000000001021010101FA
:1002D00001010101010101010101010101013100DF
:1002E0001032FFFFFFFFFFFFFFFFFFFFFFFFFFFFDA
:0202F000FFFF0E
:100493007508AAD2AF758901758CFC758A67D2A9D4
:1004A300D28C7F017E0012037F1203F812000080BA
:0104B300F850
:1004B400D2AFC294D293D292D291C290E557146033
:1004C4000904700C7580FE0557227580FFE4F5570A
:0104D4002205
:0B051100EF1FAC0670011E4C70F622BC
:1004D500E545701AE54614600E047012D200054613
:0F04E500E546700A054522C200E4F545F54622BA
:0D050400BF31030204D5BF32031204B4223C
:1003F800E4FEE4FDEE25E025E024472DF8E6FFEED7
:1004080025E025E024212DF8E6FC6F6037EC601E1E
:10041800EE25E025E024F4F582E43404F583E58252
:100428002DF582E43583F583E493FF120504EE2568
:10043800E025E024472DF8E6FFEE25E025E024211D
:0C0448002DF8A6070DBD04AC0EBE04A6E6
:010454002285
:10014A00E53125E025E02432F8E625E0FFA2A4E423
:10015A00334FFFE53125E025E02432F8A607E531E3
:10016A0025E025E02433F8E625E0FFA2A5E4334F95
:10017A00FFE53125E025E02433F8A607E53125E03F
:10018A0025E02434F8E625E0FFA2A6E4334FFFE594
:10019A003125E025E02434F8A607E53125E025E0FD
:1001AA002435F8E625E0FFA2A7E4334FFFE5312521
:1001BA00E025E02435F8A607E4F50DE53125E0252C
:1001CA00E02432250DF8E6540F700FE53125E025BD
:1001DA00E02447250DF8E4F6801FE53125E025E007
:1001EA002432250DF8E6540F640F703AE53125E004
:1001FA0025E02447250DF87601E531C454F02400A2
:10020A00F8E50D25E025E028F8C000E2FC08E2FD4B
:10021A0008E2FE08E22404FFE43EFEE43DFDE43C7D
:10022A00FCD00012013E050DE50D6404708D053108
:10023A00533103E53114600F146011146013240361
:10024A007013D2A0C2A322D2A3C2A222D2A2C2A156
:05025A0022D2A1C2A0A8
:01025F00227C
:10037F00750C00750B10750A0E750900E4FCFDABCA
:10038F000CAA0BA90AA80912000EE47BE87A03F95C
:10039F00F81200998F0C8E0B8D0A8C09C3E4950C03
:1003AF00F50CE4950BF50B7401950AF50AE4950924
:1003BF00F509E50C2421F50CE4350BF50BE4350AB2
:1003CF00F50AE43509F509AF0CAE0BAD0AFC780858
:1003DF0012012B8F42850C435389F04389018542CB
:0803EF008C85438AD2A9D28C4F
:0103F70022E3
:03000B0002045597
:10045500C0E0C0F0C083C082C0D075D000C000C06D
:1004650004C005C006C007758CFC758A6712014A71
:10047500300004B2968002D296D007D006D005D0BF
:0E04850004D000D0D0D082D083D0F0D0E032AE
:1002FF00020493E493A3F8E493A34003F68001F27E
:10030F0008DFF48029E493A3F85407240CC8C333FF
:10031F00C4540F4420C8834004F456800146F6DFCE
:10032F00E4800B0102040810204080900260E47EFC
:10033F00019360BCA3FF543F30E509541FFEE493C3
:10034F00A360010ECF54C025E060A840B8E493A38A
:10035F00FAE493A3F8E493A3C8C582C8CAC583CAB5
:10036F00F0A3C8C582C8CAC583CADFE9DEE780BE6D
:0102F200000B
:10000E00E88FF0A4CC8BF0A42CFCE98EF0A42CFC91
:10001E008AF0EDA42CFCEA8EF0A4CDA8F08BF0A40F
:10002E002DCC3825F0FDE98FF0A42CCD35F0FCEB6E
:10003E008EF0A4FEA9F0EB8FF0A4CFC5F02ECD3933
:0F004E00FEE43CFCEAA42DCE35F0FDE43CFC22A0
:10005D0075F008758200EF2FFFEE33FECD33CDCC5A
:10006D0033CCC58233C5829BED9AEC99E5829840DD
:10007D000CF582EE9BFEED9AFDEC99FC0FD5F0D6BA
:10008D00E4CEFBE4CDFAE4CCF9A88222B800C1B9E4
:10009D000059BA002DEC8BF084CFCECDFCE5F0CB22
:1000AD00F97818EF2FFFEE33FEED33FDEC33FCEB5B
:1000BD0033FB10D703994004EB99FB0FD8E5E4F916
:1000CD00FA227818EF2FFFEE33FEED33FDEC33FC03
:1000DD00C933C910D7059BE99A4007EC9BFCE99AF7
:1000ED00F90FD8E0E4C9FAE4CCFB2275F010EF2F3C
:1000FD00FFEE33FEED33FDCC33CCC833C810D7073C
:10010D009BEC9AE899400AED9BFDEC9AFCE899F876
:0E011D000FD5F0DAE4CDFBE4CCFAE4C8F92209
:10012B00E8600FECC313FCED13FDEE13FEEF13FFB2
:03013B00D8F122D6
:0C013E00ECF208EDF208EEF208EFF222FD
:00000001FF
