:030000000200E11A
:0C00E100787FE4F6D8FD75813C02012810
:10040100313233263435362537383928301B0D271C
:10032900012900012A00102B01010101010101012C
:10033900010101010101010110080101010101018E
:10034900010101010101010101010118001019FF59
:0F035900FFFFFFFFFFFFFFFFFFFFFFFFFFFFFFA4
:1003A100753B00753C0AC296E4FFFE0FBF00010ECB
:1003B100EF64324E70F5D296E4FEFFC3EF9432EE55
:0B03C100940050E20FBF00010E80F01E
:10022700E4FFFEC294D293D292D291C290E4FD74BD
:1002370001A805088002C333D8FCF4F580E4FEFF6B
:100247000FBF00010EBE4EF8BF20F50DBD07E0E45D
:10025700FDEDC3940750D67480A805088002C31328
:10026700D8FCF4F580E4FEFF0FBF00010EBE4EF888
:06027700BF20F50D80DB45
:10027D00E4FFFEC294D293D292D291C290E4FD7467
:10028D0003A805088002C333D8FCF4F580E4FEFF13
:10029D000FBF00010EBE75F8BF30F50DBD07E0E4D0
:1002AD00FDEDC3940750D674C0A805088002C31392
:1002BD00D8FCF4F580E4FEFF0FBF00010EBE75F80B
:0602CD00BF30F50D80DBDF
:1002D300E4FFFEC294D293D292D291C290E4FD7411
:1002E3000FA805088002C333D8FCF4F580E4FEFFB1
:1002F3000FBF00010EBE4EF8BF20F50DBD07E0E4B1
:10030300FDEDC3940750D674F0A805088002C3130B
:10031300D8FCF4F580E4FEFF0FBF00010EBE4EF8DB
:06032300BF20F50D80DB98
:10016D00E4FFFEC294D293D292D291C290E4FDEDFF
:10017D00C3940750207408A805088002C333D8FC27
:10018D00F4F580E4FEFF0FBF00010EBE75F8BF3021
:10019D00F50D0D80DAE4FDEDC3940750D07410A871
:1001AD0005088002C313D8FCF4F580E4FEFF0FBFF1
:0D01BD0000010EBE75F8BF30F50D0D80DAA3
:1003ED00D2AF758901758CFC758A67D2A9D28C1232
:0403FD0001CA80FBB6
:10036900EFC394304006EFD39439402BBF260302E4
:100379000227BF280302027DBF25030202D3BF273C
:100389000302016DBF0D030203A1BF1B0AD296C26E
:08039900AFC294D2A9C28C226C
:1001CA00E4FCE4FBEC25E025E0242B2BF8E6FFEC2D
:1001DA0025E025E024082BF8E6FE6F6037EE601E66
:1001EA00EC25E025E02401F582E43404F583E58278
:1001FA002BF582E43583F583E493FF120369EC253A
:10020A00E025E0242B2BF8E6FFEC25E025E0240886
:0C021A002BF8A6070BBB04AC0CBC04A620
:0102260022B5
:10000E00E51825E025E02419F8E625E0FFA2A4E492
:10001E00334FFFE51825E025E02419F8A607E5186B
:10002E0025E025E0241AF8E625E0FFA2A5E4334FEB
:10003E00FFE51825E025E0241AF8A607E51825E0C7
:10004E0025E0241BF8E625E0FFA2A6E4334FFFE5EA
:10005E001825E025E0241BF8A607E51825E025E085
:10006E00241CF8E625E0FFA2A7E4334FFFE5182590
:10007E00E025E0241CF8A607E4FFE51825E025E0BE
:10008E0024192FF8E6540FFE700EE51825E025E032
:10009E00242B2FF8E4F6800FBE0F0CE51825E02573
:1000AE00E0242B2FF876010FBF04CF051853180349
:1000BE00E51814600F14601114601324037013D22A
:1000CE00A0C2A322D2A3C2A222D2A2C2A122D2A194
:0200DE00C2A0BE
:0100E00022FD
:03000B000203CC21
:1003CC00C0E0C0D075D000C000C006C00785298C25
:1003DC00852A8A12000ED007D006D000D0D0D0E0EB
:0103EC0032DE
:1000ED000203EDE493A3F8E493A34003F68001F239
:1000FD0008DFF48029E493A3F85407240CC8C33314
:10010D00C4540F4420C8834004F456800146F6DFE2
:10011D00E4800B0102040810204080900329E47E46
:10012D00019360BCA3FF543F30E509541FFEE493D7
:10013D00A360010ECF54C025E060A840B8E493A39E
:10014D00FAE493A3F8E493A3C8C582C8CAC583CAC9
:10015D00F0A3C8C582C8CAC583CADFE9DEE780BE81
:010368000094
:00000001FF
