:03000000020003F8
:0C000300787FE4F6D8FD75815E02004AAB
:10008F000708E7DBBD7EBDDB001E0FE7DBBD7EBDD6
:10009F00DB7FBFDFEFF7FBFDFEFDFBF7EFDFBF7F82
:1000AF00EF000000000000000020322DEFDFBF7FC7
:1000BF00F7FBFDFEEFDFBF7FBFDFEFF7FBFDFEFDC1
:1000CF00FBF7EFDFBF7FBFDF000000000000000085
:0E00DF00000000000000000000000000000013
:1000EE00C294D293D292D291C290E4FCFD742D2D83
:1000FE00F8E6F580E4FEFF0FBF00010EBE75F8BFF7
:0F010E0030F50DBD00010CED641C4C70E080DB82
:10000F000200EEE493A3F8E493A34003F68001F219
:10001F0008DFF48029E493A3F85407240CC8C333F2
:10002F00C4540F4420C8834004F456800146F6DFC1
:10003F00E4800B010204081020408090008FE47EC2
:10004F00019360BCA3FF543F30E509541FFEE493B6
:10005F00A360010ECF54C025E060A840B8E493A37D
:10006F00FAE493A3F8E493A3C8C582C8CAC583CAA8
:10007F00F0A3C8C582C8CAC583CADFE9DEE780BE60
:0100ED000012
:00000001FF
