:0300000002013EBC
:0C013E00787FE4F6D8FD7581460201854B
:10024300C18001400001410001440002420000025C
:100253004500001E22E7DBBD7EBDDBE77FBFDFEF8E
:10026300F7FBFDFEFDFBF7EFDFBF7FEF00000000B4
:0602730000000001210063
:1002A900E4F508F509D2AFC294D293D292D291C2A1
:1002B900907F0AFE1201CA3000FDC2007422254651
:0602C900F8E6F58080F16B
:1001CA00750D00750C10750B0E750A00E4FCFDAB7D
:1001DA000DAA0CA90BA80A12000EE47BE87A03F90F
:1001EA00F81200998F0D8E0C8D0B8C0AC3E4950DB5
:1001FA00F50DE4950CF50C7401950BF50BE4950AD5
:10020A00F50AE50D240CF50DE4350CF50CE4350B77
:10021A00F50BE4350AF50AAF0DAE0CAD0BFC780808
:10022A0012012B8F40850D415389F0438901854086
:08023A008C85418AD2A9D28C07
:010242002299
:03000B0002027A74
:04027A00C0E0C0D050
:10027E0085408C85418A0521E521C394644017058C
:10028E0046E54670020545752100D20064064545D7
:06029E007004F545F54671
:0502A400D0D0D0E032D3
:10014A000202A9E493A3F8E493A34003F68001F220
:10015A0008DFF48029E493A3F85407240CC8C333B6
:10016A00C4540F4420C8834004F456800146F6DF85
:10017A00E4800B0102040810204080900243E47ED0
:10018A00019360BCA3FF543F30E509541FFEE4937A
:10019A00A360010ECF54C025E060A840B8E493A341
:1001AA00FAE493A3F8E493A3C8C582C8CAC583CA6C
:1001BA00F0A3C8C582C8CAC583CADFE9DEE780BE24
:010279000084
:10000E00E88FF0A4CC8BF0A42CFCE98EF0A42CFC91
:10001E008AF0EDA42CFCEA8EF0A4CDA8F08BF0A40F
:10002E002DCC3825F0FDE98FF0A42CCD35F0FCEB6E
:10003E008EF0A4FEA9F0EB8FF0A4CFC5F02ECD3933
:0F004E00FEE43CFCEAA42DCE35F0FDE43CFC22A0
:10005D0075F008758200EF2FFFEE33FECD33CDCC5A
:10006D0033CCC58233C5829BED9AEC99E5829840DD
:10007D000CF582EE9BFEED9AFDEC99FC0FD5F0D6BA
:10008D00E4CEFBE4CDFAE4CCF9A88222B800C1B9E4
:10009D000059BA002DEC8BF084CFCECDFCE5F0CB22
:1000AD00F97818EF2FFFEE33FEED33FDEC33FCEB5B
:1000BD0033FB10D703994004EB99FB0FD8E5E4F916
:1000CD00FA227818EF2FFFEE33FEED33FDEC33FC03
:1000DD00C933C910D7059BE99A4007EC9BFCE99AF7
:1000ED00F90FD8E0E4C9FAE4CCFB2275F010EF2F3C
:1000FD00FFEE33FEED33FDCC33CCC833C810D7073C
:10010D009BEC9AE899400AED9BFDEC9AFCE899F876
:0E011D000FD5F0DAE4CDFBE4CCFAE4C8F92209
:10012B00E8600FECC313FCED13FDEE13FEEF13FFB2
:03013B00D8F122D6
:00000001FF
