:03000000020AD021
:0C0AD000787FE4F6D8FD758120020B173A
:0C0EA70030002B002D002A002F003D0021
:100D3B00810A00810F00C10081100081120084170D
:100D4B0000000000840B0000000084130000000072
:100D5B00840200000000840600000000822B0000CB
:040D6B008200000002
:10076100D2AF120E857F027E00120A2A120E2902D2
:10077100083D3001FDC201782FE2B41604E4FF8088
:1007810058782FE2B40C047F01804E782FE2B41820
:10079100047F028044782FE2B45E047F03803A78BC
:1007A1002FE2B408047F048030782FE2B41C047F68
:1007B100058026782FE2B45A047F06801C782FE248
:1007C100B442047F078012782FE2B452047F08807C
:1007D10008782FE2B44A077F091208668094782FBF
:1007E100E2B40705120BCF8089782FE2B40904E443
:1007F100FF801C782FE2B415047F018012782FE26C
:10080100B40D047F028008782FE2B419087F031227
:100811000C41020773782FE2B44306120517020751
:1008210073782FE2B44406120B5C020773782FE24F
:10083100FF64406004EFB44513120E107BFF7A0E83
:1008410079A77D017F0F120D72020773782FE2FFE6
:10085100B44605D200020773EF64476003020773D1
:05086100C20002077354
:10065B007806E2FC08E2FD08E2FE08E2FF1202F275
:06066B007BFE7A00791B02
:0E067100784FEBF208EAF208E9F2081204F200
:10067F00E47856F208F27852E2FCEC3350307852BC
:10068F00E2FC08E2FD08E2FE08E2FF1204BB78522A
:10069F001204F2784FE2FB0808E2F92401F218E2A3
:1006AF00FA3400F2742D12038C7857E204F2E47BD3
:1006BF000AFAF9F8C0007852E2FC08E2FD08E2FEFF
:1006CF0008E2FFD000120CF7AF037856E2FE04F2F7
:1006DF0074582EF8EFF27852E2FC08E2FD08E2FEC1
:1006EF0008E2FFE47B0AFAF9F8120CF778521204C9
:1006FF00F2E4FFFEFDFC7852E2FB08E2F908E2FAB1
:10070F0008E2CBF8D31204C950A47856E2FF08E2EE
:10071F002FF27856E2FF14F2D3EF64809480401FDB
:10072F00E22458F8E22430FF784FE2FB0808E2F9A0
:10073F002401F218E2FA3400F2EF12038C80D3781E
:10074F004FE2FB08E2FA08E2F9E412038C7857E271
:01075F00FF9A
:010760002276
:100CB100784FEFF2ED14601614601F1460282403BE
:100CC1007033784FE2FD7BFF7A0E79A98022784F4D
:100CD100E2FD7BFF7A0E79AB8016784FE2FD7BFF58
:100CE1007A0E79AD800A784FE2FD7BFF7A0E79AFFB
:060CF100E4FF120D722267
:100E100078021204FE0000000078061204FE0000B2
:090E20000000E47810F202000366
:10086600783DEFF27810E2D394014003120E10782F
:1008760010E26003020913FF782BCFF208EFF27F34
:1008860001782BE4F20804F2E41FFE7D207C417817
:1008960002E2FB08E2F908E2FA08E2CBF812010EDE
:1008A600C004C005C006C007783DE2FC1202BED0F7
:1008B60003D002D001D00012001D78021204F2E427
:1008C600FBFA79207841C0007802E2FC08E2FD08D4
:1008D600E2FE08E2FFD000120217E4FBFA79407844
:1008E6004212001D1202F2781BEFF208742EF20873
:1008F600EFF27811E2FFC374109FFF7BFE7A007956
:100906001B7D01120D72E4782BF208F222E4FFFE41
:100916007D207C417806E2FB08E2F908E2FA08E26B
:10092600CBF812010EC004C005C006C007783DE230
:10093600FC1202BED003D002D001D00012001D78F6
:10094600061204F212065B7811EFF2C374109FFFD1
:0C0956007BFE7A00791B7D01120D7222DD
:100B5C007810E2D394014003120E107810E270204A
:100B6C007802E2FC08E2FD08E2FE08E2FFE4FBFA90
:100B7C007920784112021778021204F27802801E52
:100B8C007806E2FC08E2FD08E2FE08E2FFE4FBFA6C
:100B9C007920784112021778061204F278061206B0
:100BAC005D7811EFF27B1B7D017F01120E9678119F
:100BBC00E2FFC374109FFF7BFE7A00791B7D01124C
:030BCC000D722285
:100BCF007810E2D394014003120E107810E27030C7
:100BDF00780212065D7811EFF2E2FF04F2741B2F18
:100BEF00F8742EF27811E2FFC374109FFF7BFE7A28
:100BFF0000791B7D01120D72782BE4F20804F222AA
:100C0F007811E2FF04F2741B2FF8742EF212065BB8
:100C1F007811EFF27B1B7D017F01120E967811E2A6
:100C2F00FFC374109FFF7BFE7A00791B7D01120DAD
:020C3F0072221F
:040C4100783DEFF219
:100C45007810E270667802E2FC08E2FD08E2FE0830
:100C5500E2FF1202F27BFE7A00793F120671783EBE
:100C6500EFF2C374109FFBE4FDFF120E96783EE28F
:100C7500FFC374109FFF7BFE7A00793FE4FD120DE0
:100C850072783DE2FD7F01120CB17B0E7D017F0183
:100C9500120E967BFF7A0E79A77D017F0F120D72DA
:0B0CA500783DE27812F278107401F242
:010CB0002221
:100517007810E26401600302065A7402F27812E26C
:1005270014602D14604E14606B240360030205C22F
:100537007806E2FC08E2FD08E2FE08E2FF7802E244
:10054700FB08E2F908E2FA08E2CBF812001D806620
:100557007806E2FB08E2F908E2FA08E2CBF8C00005
:100567007802E2FC08E2FD08E2FE08E2FFD0001292
:10057700001980427806E2FC08E2FD08E2FE08E284
:10058700FF7802E2FB08E2F908E2FA08E2CBF81288
:10059700010E80227806E2FB08E2F908E2FA08E297
:1005A700CBF8C0007802E2FC08E2FD08E2FE08E2B0
:1005B700FFD000120217780B1204F27806E2FC084B
:1005C700E2FD08E2FE08E2FF1202F27BFE7A007902
:1005D7003E120671783DEFF27812E2FDE4FF120C4D
:1005E700B1783DE2FFC3740F9FFBE4FD7F01120E5C
:1005F70096783DE2FFC374109FFF7BFE7A00793E39
:10060700E4FD120D72780BE2FC08E2FD08E2FE0839
:10061700E2FF1202F27BFE7A00793E120671783D04
:10062700EFF27BFF7A0E79B17D01E4FF120D72784C
:100637003DE2FFC3740F9FFB7D017F01120E967889
:100647003DE2FFC374109FFF7BFE7A00793E7D0178
:03065700120D720F
:01065A00227D
:040A2A00AB07AA0666
:100A2E00783D1204FE000E1000AE02AF03E4FCFD92
:100A3E00783DE2FB08E2F908E2FA08E2CBF812038D
:100A4E009EE47BE87A03F9F8120429783D1204F249
:100A5E00783DE2FB08E2F908E2FA08E2CBF8C3E4DB
:100A6E009BFFE49AFE740199FDE498FC783D120414
:100A7E00F2783DE2FC08E2FD08E2FE08E2240DFFFA
:100A8E00E43EFEE43DFDE43CFC783D1204F2783D8C
:100A9E00E2FC08E2FD08E2FE08E2FF78081204DF3D
:100AAE00780AEFF2783D080808E2780FF25389F0E1
:100ABE00438901780AE2F58C780FE2F58AD2A9D241
:010ACE008C9B
:010ACF002204
:03000B00020DA93A
:100DA900C0E0C0D075D000C000780AE2F58C780F99
:100DB900E2F58A300004B2968002D296D000D0D0F3
:030DC900D0E03245
:020D6F00C101C0
:100E8500D2B353890F438910C28EC2ABD28AD2AA7C
:010E9500223A
:100DCC00E4F58DF58BD28E30B307E58DC39440409E
:100DDC00F6C28EAF8DEFFEAD8B7C00E42DFFEC3EAA
:020DEC00FE22E5
:100DEE00E4F58DF58BD28E20B307E58DC39440408C
:100DFE00F6C28EAF8DEFFEAD8B7C00E42DFFEC3E88
:020E0E00FE22C2
:030013000209627D
:10096200C0E0C0D075D000C000C001C002C003C04A
:0709720004C005C006C00728
:10097900120DEEC3EF9499EE941E4009D3EF943310
:10098900EE94224005C28B020A15120DCCC3EF94D6
:1009990066EE940E4009D3EF9400EE94124004C21F
:1009A9008B8069E4FBE4FA120DEEC3EF9439EE94FF
:1009B900014009D3EF94CEEE94024004C28B804CDF
:1009C900120DCCD3EF9439EE9401400EEF94CEEE94
:1009D90094025006E9C313F9801DD3EF9441EE94B4
:1009E900054010EF94D7EE94065008E9C3134480EC
:1009F900F98004C28B80150AEAB408AB742D2BF870
:0C0A0900E9F20BEB6404709DD201C28B7B
:100A1500D007D006D005D004D003D002D001D00035
:050A2500D0D0D0E0324A
:100E3D007580FFC290D291D295AF80C295EF20E719
:010E4D00F6AE
:010E4E002281
:100E4F00AE07120E3DC290C291AF068F80D295C2EF
:020E5F009522DA
:100E6100AE07120E3DD290C291AF068F80D295C2CD
:020E71009522C8
:100E7300ED7004AC078004EF2440FCEC4480FF02D7
:020E83000E4F10
:100D72007850EBF208EAF208E9F2120E737850E2C8
:100D8200FB08E2FA08E2F9120373601A7850E2FBF8
:100D92000808E2F92401F218E2FA3400F2120373AD
:070DA200FF120E6180D72251
:100E9600120E73AF031BEF60077F20120E6180F303
:010EA6002229
:050003007F01020E4F19
:100E29007F38120E4F7F0C120E4F7F06120E4F7F26
:040E390001020E4F55
:1000160002035EE86480F8E933E83360110460F0B7
:10002600ED33EC337009E8FCE9FDEAFEEBFF220450
:1000360060DED3EB9FEA9EE99DE8C2E78CF0C2F74B
:1000460095F0400CE8CCF8E9CDF9EACEFAEBCFFB17
:1000560012032985D0F05804700320D5B3E8047044
:10006600075002B2D502036892D5EC0460F7E4CCDF
:10007600C0E0C398F8603B94186008400DD0E0FBE0
:10008600020340E4FBFAC9FC8028E830E406E4C930
:10009600FBE4CAFCE830E305E4C9CACBFCE8540734
:1000A6006010F8C3E913F9EA13FAEB13FBEC13FC3F
:1000B600D8F130F52FC3E49CFCEF9BFFEE9AFEEDE2
:1000C60099FDD0E0FBEF4E4D4C701222DB0302038C
:1000D60065EC2CFCEF33FFEE33FEED33FDED30E740
:1000E600EB020340EF2BFFEE3AFEED39FDD0E0FBCD
:1000F60050130BBB0003020368ED13FDEE13FEEF76
:0801060013FFEC13FC0203409F
:10010E00EC4D6011E8497017ED33EC3304600DE4EB
:10011E00FCFFFEFD22E933E8330470F802035E12A1
:10012E00032958046009E4CC2481500628500902A2
:10013E000368284003020365C0E0EB4A7044B980AF
:10014E0006D0E0FB020354EF4E701CBD8008EBFF9F
:10015E00EAFEE9FD80EBE98DF0A4FEE5F00201F781
:10016E00E9CDF9EAFEEBFFEF89F0A4FCE5F0CE89CC
:10017E00F0A42EFFE435F0CD89F0A42DFEE435F089
:10018E008067EF4E7005BD80D780C3EF8BF0A4ACB7
:10019E00F0EE8BF0A42CFCE435F0F8EF8AF0A42CF2
:1001AE00E5F038FCE433CB8DF0A42CFCE5F03BF805
:1001BE00EE8AF0A42CFCE5F038F8E433CF89F0A4F5
:1001CE002CFCE5F038CF3400CE89F0A42FFFE5F0FB
:1001DE003EFEE433C98DF0A42EFEE5F039CD8AF053
:1001EE00A42FFFE5F03EFEE43DFD33D0E0FB5007CB
:1001FE000BBB000F020368EC2CFCEF33FFEE33FE5B
:06020E00ED33FD02034088
:10021400020368EC5D046005E85904700302035EA0
:10022400120329580460F6EC4860F2EC7004FDFEF9
:10023400FF22C860DB2481C85009C39860025006BD
:100244000203659850CAF582E9294B4A7005AB82CE
:1002540002035475F0007C1A7880C3EF9BEE9AED8C
:1002640099400DC3EF9BFFEE9AFEED99FDE842F035
:10027400DC23ACF0D0E0FFD0E0FED0E0FDAB822088
:10028400E7101BEB60BAEC2CFCEF33FFEE33FEED12
:1002940033FD020340E803F830E705C0F075F000D1
:1002A400EF2FFFEE33FEED33FD40B830E7C280AAF6
:1002B40075F020800E75F010800575F0087D007EC5
:1002C400007F003392D530D5031204BBEC334010C9
:1002D400EF33FFEE33FEED33FDEC33FCD5F0ED22CE
:0E02E400E5F0247EA2D513CC92E7CDCEFF220A
:1002F200EDD2E7CD33EC3392D524814006E4FFFE04
:10030200FDFC22FCE4CFCECDCC24E0501174FF8062
:10031200EDC3CC13CCCD13CDCE13CECF13CF0470FF
:07032200F030D5DE0204BB40
:10032900E9D2E7C933E833F892D5EDD2E7CD33EC1A
:0703390033FC5002B2D52293
:10034000EC30E7100FBF000C0EBE00080DBD00041E
:100350000BEB6014A2D5EB13FCED92E7FD2274FFCA
:10036000FCFDFEFF22E480F8A2D574FF13FC7D8023
:03037000E480EF37
:100ADC00020761E493A3F8E493A34003F68001F2C8
:100AEC0008DFF48029E493A3F85407240CC8C3331B
:100AFC00C4540F4420C8834004F456800146F6DFEA
:100B0C00E4800B0102040810204080900D3BE47E31
:100B1C00019360BCA3FF543F30E509541FFEE493DE
:100B2C00A360010ECF54C025E060A840B8E493A3A5
:100B3C00FAE493A3F8E493A3C8C582C8CAC583CAD0
:100B4C00F0A3C8C582C8CAC583CADFE9DEE780BE88
:010D71000081
:10037300BB010689828A83E0225002E722BBFE0288
:09038300E32289828A83E49322BB
:10038C00BB010689828A83F0225002F722BBFE0150
:02039C00F3224A
:10039E00E88FF0A4CC8BF0A42CFCE98EF0A42CFCFE
:1003AE008AF0EDA42CFCEA8EF0A4CDA8F08BF0A47C
:1003BE002DCC3825F0FDE98FF0A42CCD35F0FCEBDB
:1003CE008EF0A4FEA9F0EB8FF0A4CFC5F02ECD39A0
:0F03DE00FEE43CFCEAA42DCE35F0FDE43CFC220D
:1003ED0075F008758200EF2FFFEE33FECD33CDCCC7
:1003FD0033CCC58233C5829BED9AEC99E58298404A
:10040D000CF582EE9BFEED9AFDEC99FC0FD5F0D626
:10041D00E4CEFBE4CDFAE4CCF9A88222B800C1B950
:10042D000059BA002DEC8BF084CFCECDFCE5F0CB8E
:10043D00F97818EF2FFFEE33FEED33FDEC33FCEBC7
:10044D0033FB10D703994004EB99FB0FD8E5E4F982
:10045D00FA227818EF2FFFEE33FEED33FDEC33FC6F
:10046D00C933C910D7059BE99A4007EC9BFCE99A63
:10047D00F90FD8E0E4C9FAE4CCFB2275F010EF2FA8
:10048D00FFEE33FEED33FDCC33CCC833C810D707A8
:10049D009BEC9AE899400AED9BFDEC9AFCE899F8E3
:0E04AD000FD5F0DAE4CDFBE4CCFAE4C8F92276
:100CF700C2D5E830E70FB2D5E4C39BFBE49AFAE428
:100D070099F9E498F8EC30E717B2D5120D2D1204D3
:100D170029E4C39BFBE49AFAE499F9E498F8800381
:100D270012042930D50DE4C39FFFE49EFEE49DFD28
:040D3700E49CFC221A
:0E04BB00C3E49FFFE49EFEE49DFDE49CFC2252
:1004C900EB9FF5F0EA9E42F0E99D42F0EC6480C8AA
:0604D90064809845F0224A
:1004DF00E8600FECC313FCED13FDEE13FEEF13FFFB
:0304EF00D8F1221F
:0C04F200ECF208EDF208EEF208EFF22246
:1004FE00D083D082E493F208740193F208740293CD
:09050E00F208740393F274047303
:00000001FF
